:020000040800F2
:1000000040DA022061020008716300086F2C0008CA
:100010006F6300082D0A00084596000800000000E4
:100020000000000000000000000000001D82000829
:10003000FD0C0008000000003F030008A582000836
:100040009B0200089B0200089B0200089B0200081C
:100050009B0200089B0200089B0200089B0200080C
:100060009B0200089B0200089B0200089B020008FC
:100070009B0200089B0200089B0200089B020008EC
:100080009B0200089B0200089B0200089B020008DC
:100090009B0200089B0200089B0200089B020008CC
:1000A0009B0200089B0200089B0200089B020008BC
:1000B0009B0200089B0200089B0200089B020008AC
:1000C0009B0200089B0200089B0200089B0200089C
:1000D0009B020008D19500089B0200089B020008C3
:1000E0009B0200089B0200089B0200089B0200087C
:1000F0009B0200089B0200089B0200089B0200086C
:100100009B0200089B0200089B0200089B0200085B
:100110009B0200089B0200089B0200089B0200084B
:100120009B0200089B0200089B0200089B0200083B
:100130009B0200089B0200089B0200089B0200082B
:100140009B0200089B0200089B0200089B0200081B
:100150009B0200089B0200089B0200089B0200080B
:100160009B0200089B0200089B0200089B020008FB
:100170009B0200089B0200089B0200080000000090
:100180009B0200089B0200089B0200089B020008DB
:100190009B0200089B0200089B0200089B020008CB
:1001A0009B0200089B0200089B02000800F002F876
:1001B00000F047F80AA090E8000C82448344AAF1BA
:1001C0000107DA4501D100F03CF8AFF2090EBAE8B8
:1001D0000F0013F0010F18BFFB1A43F0010318477B
:1001E0001CF500003CF50000103A24BF78C878C127
:1001F000FAD8520724BF30C830C144BF04680C602D
:10020000704700000023002400250026103A28BF74
:1002100078C1FBD8520728BF30C148BF0B60704778
:10022000642900F03181782900F06A81732900F097
:100230003883002070471FB50AF057FD1FBD10B569
:1002400010BD00F051FB1146FFF7F5FF09F006FC69
:1002500000F06FFB03B4FFF7F2FF03BC09F037FABD
:1002600011488047DFF84400016841F470010160E3
:10027000BFF34F8FDFF83800016821F04041016083
:10028000BFF36F8F0B480047FEE7FEE7FEE7FEE790
:10029000FEE7FEE7FEE7FEE7FEE7FEE70648074962
:1002A000074A084B70470000C982000888ED00E04B
:1002B00034EF00E0AD01000840D4022040DA022013
:1002C00040D6022040D60220EFF3098141B1F1EE81
:1002D000101A40F8041D20ED200A29490A68106010
:1002E0007047B0EC200A02C8E1EE101A25490A68EE
:1002F00010607047EFF3108072B6704780F310887B
:10030000704721484FF6FF710170002080F3098883
:100310001E48016881F308881D48012101701D48AD
:100320004FF08051016062B6FEE71A484FF08051ED
:100330000160704717484FF080510160704772B6F6
:10034000EFF3098028B1203880E8F00F0C490968E4
:10035000086000B5104880475DF804EB0F4810496D
:100360000A780270064807490A680260106890E837
:10037000F00F203080F309884EF0F40E62B670471B
:10038000BC000020C400002022ED00E0F8000020A6
:10039000A300002004ED00E091720008A0000020FE
:1003A000A1000020704700000FB4044910B503AA53
:1003B000029800F07BFA10BC5DF814FB44000020AA
:1003C0000FB41CB5074B06AA7B44694600900598FC
:1003D00000F03DFA0020694600F04CFA1CBC5DF8C4
:1003E00014FB0000A904000070B50446856900688C
:1003F000C10601D5302600E02026C00707D070BD19
:10040000D4E9012130469047206A401C20626D1ECD
:10041000F6D570BD70B5044685690078C00707D170
:1004200070BDD4E9012120209047206A401C206241
:100430006D1EF6D570BD70B50C460546012A05D077
:100440002878800600D5EA69002302E0012305E050
:100450005B1C934202D2E05C0028F9D1A869E6183F
:10046000C01AA861286A184428622846FFF7BCFF12
:1004700004E0D5E9012114F8010B9047B442F8D308
:100480002846FFF7C7FF70BD2DE9F041064600245E
:1004900010687529314616A510D0AFF300800028EA
:1004A00002DA404213A507E031688A0701D512A598
:1004B00002E0490704D511A5012401E0AFF3008053
:1004C00000210A2206F1240709E0B0FBF2FCB0FB90
:1004D000F2F302FB1C00303078541846491C002807
:1004E000F3D123462A463046BDE8F04100F051B929
:1004F000000000002D0000002B0000002000000084
:1005000070B504460D4621461068AFF3008021887F
:10051000090502D50F4A7A4402E00E4A7A440E32A7
:10052000002104F1240305E000F00F060009965DA8
:100530005E54491C0028F7D120780023000704D519
:10054000702D02D009B1022311322046BDE870405F
:1005500000F01FB92AF100002DE9F05F894604463A
:100560004FF0000ADFF824B1FB44C0F820A0204679
:10057000E168884700287DD0252806D0D4E90121EC
:100580009047206A401C2062F1E700255F46204624
:10059000E16888472028064607DB312E05D2B819C6
:1005A00010F8200C08B10543F1E7A80701D525F0A4
:1005B0000405C4F81CA00027C4F818A02A2E09D0EE
:1005C000304609F07DF838B304EB8708303EC8F8B0
:1005D000186019E059F8041B204604EB870291616A
:1005E000E1688847012F064618D1E069002820DA23
:1005F00025F020051DE0D8F8180000EB800006EB80
:1006000040003038C8F818002046E16888470646A0
:1006100009F056F80028EED1012F0AD02E2E08D16D
:100620002046E16888477F1C0646022F45F02005DA
:10063000C4DBA069002803DA404245F00105A0614F
:10064000E80701D025F01005A6B1A6F14100192850
:1006500002D8203645F400654A46314620462560DA
:100660004D46FFF7DDFD60B1012807D0ED1D25F0F7
:10067000070000E007E000F1080978E705F1040948
:1006800075E730467AE7206ABDE8F09F00F1000088
:1006900010B5203AC0F00B80B1E81850203AA0E81D
:1006A0001850B1E81850A0E81850BFF4F5AF5FEA51
:1006B000027C24BFB1E81850A0E8185044BF18C904
:1006C00018C0BDE810405FEA827C24BF51F8043BAB
:1006D00040F8043B08BF7047D20728BF31F8023BFF
:1006E00048BF11F8012B28BF20F8023B48BF00F893
:1006F000012B70474FF0013C50F8042B51F8043B9C
:100700009A4221D1A2EB0C03934313EACC1317D1E5
:1007100050F8042B51F8043B9A4215D1A2EB0C037C
:10072000934313EACC130BD150F8042B51F8043B3C
:100730009A4209D1A2EB0C03934313EACC13DBD00A
:100740004FF00000704700BFD01A01BAB1FA81F132
:1007500001F0180122FA01F0CB40C1F12001DBB217
:10076000C0B2C01A2CFA01F3D11A914311EAC31195
:10077000E6D17047704770477047704710B500F07A
:10078000A7F8006810BD10B5044600F0A1F8046099
:1007900010BD2DE9F0470D4699469246044600F1FA
:1007A00024080168880604D5E06921F01001216061
:1007B00000E00120A84201DD471B00E00027A169FD
:1007C0007A1902EB0900081AA0612078C00602D449
:1007D0002046FFF709FE002608E0D4E901211AF8B7
:1007E00006009047206A401C761C20624E45F4DBD0
:1007F0002078C0060AD52046FFF7F6FD06E0D4E9CA
:10080000012130209047206A401C2062381EA7F149
:100810000107F4DC07E0D4E9012118F8050090474E
:10082000206A401C2062281EA5F10105F3DC204649
:10083000FFF7F0FD2078000602D50220BDE8F08722
:100840000120FBE701694A1C02610878704700B586
:100850008FB0CDE901310021059105497944CDE9F9
:10086000031011466846FFF777FE0FB000BD000089
:10087000E5FFFFFF0A6802F8010B0A60704710B538
:10088000436913B1AFF3008001E0FFF7D4FD01200D
:1008900010BD127800F124010A7000224A70012272
:1008A000EDE711684FF0FF32E9E70000074B70B544
:1008B0000D467B44FFF7CBFF0446284600F00CF8BA
:1008C00010B14FF0FF3070BD204670BDC78F0000E3
:1008D00000487047E0D30220007B00F080007047A2
:1008E00000487047E0D302207546FFF7F9FFAE4697
:1008F00005006946534620F00700854618B020B52C
:10090000FFF7CCFCBDE820404FF000064FF0000799
:100910004FF000084FF0000B21F00701AC46ACE8A7
:10092000C009ACE8C009ACE8C009ACE8C0098D4614
:10093000704710B50446AFF300802046BDE8104074
:10094000FFF788BC02F0B4B92DE9F0410D4601462D
:10095000002004464E1908E00702301B401E80B2FA
:1009600000F007F8641C3844E4B2AC42F4D3BDE8AC
:10097000F08110B5044602F043FA200AA02101EBF1
:100980004000C0B202F00CFA02F07CFAE0B202F0D1
:1009900007FA02F077FA02F033FAA12002F000FA27
:1009A00002F070FA002002F0C7F9044602F048FA9B
:1009B000204610BD2DE9F04116460D46074600249D
:1009C00009E0E00025FA00F0C1B2381980B200F069
:1009D00006F8641CE4B2B442F3D3BDE8F08170B50C
:1009E0000D46044602F00CFA200AA02101EB40005B
:1009F000C0B202F0D5F902F045FAE0B202F0D0F947
:100A000002F040FA284602F0CBF902F03BFA02F07D
:100A100017FABDE870400A2008F076BE70477047AC
:100A2000704770477047704770477047FEE7000097
:100A300070B50E4C0025C4F898520D48016821F09D
:100A4000C0010160016841F0400101600948C0F83F
:100A50008C52022004F5267408F078FE01202060F4
:100A6000022008F073FE256070BD00000080434244
:100A70000020024000004442154810B5016886B0CD
:100A800041F080010160016801F080010591016879
:100A900041F4807101600068012400F480700590C9
:100AA0004020CDE900040320CDE902406946094811
:100AB00000F0ACFD082000906946074800F0A6FD54
:100AC0000648C0F88C420648C0F8984206B010BDEF
:100AD00030380240001C0240002002400000444226
:100AE0000080434270B50E4C0026C4F898620D4851
:100AF000016821F0C0010160016841F0400101601E
:100B000009480125C0F88C52022004F5267408F02B
:100B10001DFE2560022008F019FE266070BD000051
:100B20000080434200200240000044422DE9F0478B
:100B3000824619480024016821F0C0010160016863
:100B400001601E2008F002FE0025144EDFF85090D0
:100B50002F464FF00108C6F89872022008F0F6FD03
:100B6000C6F898826006040ED9F80C0208B1641C1D
:100B7000E4B2022008F0EAFD6D1CEDB2082DEAD3C4
:100B8000BAF1000F04D0FFF753FF2046BDE8F0870D
:100B9000FFF7A8FFF9E70000002002400080434271
:100BA000000044422DE9F04705461648016821F04F
:100BB000C0010160016841F040010160124E002750
:100BC000C6F89872022008F0C1FDDFF840800024CA
:100BD0004FF00109E909C8F88C126806050E0220D9
:100BE00008F0B4FDC6F89892022008F0AFFDC6F8F0
:100BF0009872022008F0AAFD641CE4B2082CE9D324
:100C0000BDE8F087002002400080434200004442DB
:100C100070B50F48016821F0C0010160016841F022
:100C2000400101600B4E0120C6F88C020A4DC5F848
:100C300098021E2005F5267506F5237608F086FD38
:100C400000243460022008F081FD2C6070BD00009B
:100C500000200240000044420080434270B50F482B
:100C6000016821F0C0010160016841F040010160AC
:100C70000B4E0020C6F898020A4DC5F88C021E20C3
:100C800005F5237506F5267608F060FD012434602D
:100C9000022008F05BFD2C6070BD000000200240C7
:100CA000008043420000444270B5114800240168AE
:100CB00021F0C0010160016801600E4D0120C5F8FE
:100CC0008C020D4EC6F8980207E0641CE4B2FA2CC0
:100CD00003D9FFF7C3FF012070BD022008F036FDE5
:100CE000D5F80C020028F0D1C6F8980270BD0000BB
:100CF0000020024000004442008043427047000050
:100D000070B5B3F5804F05D06FF0704140F82210F8
:100D1000002070BD50F82230084C2340D1E9004536
:100D200044EA05148D688E892D0245EA06458969D5
:100D30002C430C431C4340F82240E9E70000F0CF6D
:100D4000F0B50C6850F82450194A1540D1E9012338
:100D5000D1E903671A433E4332434E6932438E69F9
:100D60003243CE6932430E6A32434E6A32438E6A50
:100D70003243CE6A3243CE6B32430E6B32434E6BFC
:100D800032432A43082B01D142F0400240F824208C
:100D90004A6BB2F5801F08D10A6832B14FF48072F5
:100DA0000A6104490268114301600020F0BD00009F
:100DB0008000E0FF00011000F0B500EB82025368F4
:100DC0008E8903F04044D1E9003543EA05138D686C
:100DD0002D0245EA06452B430E8A0D4D05EB0656BE
:100DE00033430E7D6F0107EB066633438E69334351
:100DF000234353600268D20207D54268098A22F46D
:100E0000700205EB0151114341600020F0BD00006C
:100E10000000F0FF30B5D1E901231A43D1E90334D2
:100E200023431A434B690D681A438B691A43D1E96E
:100E30000734012D496A05686FF30E0505D01A4382
:100E400022430A432A43026008E0234329430B4319
:100E5000416803606FF30E010A434260002030BD19
:100E6000426942EA4101416100207047F8B51446E9
:100E70000546D1E9000210438A686FF01F03C96874
:100E800003EB421242EA412108430090286100F03E
:100E9000B5FC064609E0601C07D024B100F0AEFCAA
:100EA000801BA04201D90320F8BDA8698006F2D4B6
:100EB0000020F8BDF0B56FF00F05D1E9003405EB67
:100EC00004145B1E2E0123438C682F0306EB0424BD
:100ED0004FEA054C23430D8A8E8ACC68097E4FF079
:100EE0007F4E07EB05450CEB06560EEB0161012A20
:100EF0000CD082683F1107EB043423432B43334368
:100F000002F070420B43134383600FE0C2682B432F
:100F10000B4302F070428168134301F070422103D9
:100F2000A1F5805131431143C36081600020F0BDC1
:100F300070B5364888B00024016841F08001016036
:100F4000016801F080010691016841F4807101603F
:100F5000006801A900F4807006908020012581E8D6
:100F60003100032004902A4800F050FB2802CDE90C
:100F7000010501A9274800F049FBFFF77DFD264E3A
:100F8000C6F8A042142006F5287608F0BDFB3560AF
:100F9000322008F0B9FB8DF800400122694600209C
:100FA00000F00AF901226946A42000F005F9162094
:100FB0008DF8000001226946802000F0FDF80C2029
:100FC0008DF8000001226946882000F0F5F8022221
:100FD0006946A12000F028F89DF80000302803D1D0
:100FE0009DF80110032908D09DF80110012904D0B3
:100FF000022902D0012008B070BDC9B201EB002166
:1010000006A0FFF7D1F90020F5E7000030380240D4
:10101000001C024000200240000044424354502083
:1010200049443A25780D0A002DE9F04115460F464E
:101030000446FFF7EDFD7020FFF7B4FDFFF734FE27
:10104000E0B2FFF7AFFDFFF72FFEFFF7E1FD7120E4
:10105000FFF7A8FDFFF728FE00246E1E09E0B4424A
:1010600001D0012000E00020FFF760FD3855641C2E
:10107000E4B2AC42F3D3BDE8F041FFF7EFBD0000AE
:101080002DE9F143484F00244FF00A09387882B027
:10109000401CC0B2B0FBF9F209FB1201434DA0465F
:1010A000387009B10A2864D2012202A90220FFF790
:1010B000BBFF9DF8080001075BD000F00F00062879
:1010C00057D2FF218140C84340F0C00085F820007E
:1010D0004FF00108002695F8201008FA04F00142AC
:1010E0003AD033480422694630F81400FFF79CFFD9
:1010F00095F830009DF80010C0079DF8010001F040
:101100000F010ED000EB012105EB4400C1829DF8D8
:1011100002209DF8031002F00F0201EB02218181F1
:1011200010E000EB012023490988091A05EB44006F
:1011300081819DF802209DF8031002F00F0201EB5F
:101140000221C1829DF800000821B1EB101F03D0DD
:1011500005EB4400C6828681641CE4B2052CBAD338
:10116000A9894FF0010819B9E88A08B98DF8086013
:101170003E709DF80800C0060ED195F820000106CB
:1011800002D520F0800005E04FF6FF71A981E982C9
:1011900000F0E00085F820003878F02801D987F8C1
:1011A00000904046BDE8FE835C0000206400002003
:1011B00044F40008B81400202DE9F04115460E460D
:1011C00004460027FFF724FD7020FFF7EBFCFFF734
:1011D0006BFDE0B2FFF7E6FCFFF766FD002408E0D8
:1011E000305DFFF7DFFCFFF75FFD070003D1641CF4
:1011F000E4B2AC42F4D3FFF731FD3846BDE8F081EC
:101200002DE9F0433F4889B00024016841F0800196
:101210000160016801F080010791016841F480716B
:1012200001600068802600F48070079001AA012503
:1012300003270096DFF8D09082E8B0006946484660
:1012400000F0E4F92802CDE9000569462F4800F0D6
:10125000DDF9FFF711FCDFF8B880C8F8A0420A20DA
:1012600008F052FAC8F8A0520A2008F04DFACDE969
:101270000064CDE902476946484600F0C7F964209A
:1012800008F042FA042205A948F2401000F058F88C
:101290008DF8184005A91FA0FFF786F820A105A822
:1012A000FFF728FA18B1012009B0BDE8F083022049
:1012B0008DF8140048F24005012205A9284600F0E7
:1012C0007BF9012205A9E81D00F03AF89DF81410F9
:1012D00060290BD214A0FFF767F818488088A0F5A2
:1012E000AA41103902D1012000F040F90A2008F08B
:1012F0000BFA8DF81440012205A9284600F05CF98C
:101300000020D1E730380240001C0240002002409B
:10131000000044424354502049443A25730D0A00CA
:10132000393134370000000044656661756C742003
:101330005665723A25640D0A00000000B8140020BA
:101340002DE9F04115460F460446FFF761FC2820C1
:10135000FFF728FCFFF7A8FC200AFFF723FCFFF7A4
:10136000A3FCE0B2FFF71EFCFFF79EFCFFF750FC6A
:101370002920FFF717FCFFF797FC00246E1E09E0F9
:10138000B44201D0012000E00020FFF7CFFB385528
:10139000641CE4B2AC42F3D3BDE8F041FFF75EBC9D
:1013A0002DE9F14F6D4E00244FF00A0B307882B0DA
:1013B000401CC0B2B0FBFBF20BFB1201684DA14612
:1013C000307009B10A2873D248F24E17012202A9DF
:1013D0003846FFF7B5FF9DF808004FF000080106FA
:1013E0000AD500F00F00062806D28DF804800122ED
:1013F00001A9384600F0E0F89DF80800010757D031
:1014000000F00F01062953D2FF2088408DF8040018
:10141000C04395F820A040F0C00085F82000A889BE
:10142000A882E88A4F4FE8834FF0010995F8201011
:1014300009FA04F001424ED04B480422694630F8C4
:101440001400FFF77DFFB888A0F5AA41103904D039
:10145000A0F58641423916D03DE095F83000C0072E
:1014600015D09DF800009DF8011000EB012105EB5F
:101470004400C1829DF802109DF8032001EB022177
:10148000C1F5487126E095F83000C00711D09DF8ED
:1014900000009DF8011000EB012105EB4400818163
:1014A0009DF802109DF8032001EB0221C18212E099
:1014B0002CE09DF800009DF8011000EB012105EBE8
:1014C0004400C1829DF802109DF8032001EB022127
:1014D000C1F588718181641CE4B2052CA6D3A98969
:1014E0003A884FF001092846914203D8C18A7A8888
:1014F000914209D99DF8081001F00F0101290CD97A
:10150000C1898181018BE98286F800809DF80800FD
:1015100000F08F0080280AD018E0818A8181C18B79
:10152000C18280218DF8081085F820A0EEE795F89B
:101530002000010602D520F0800005E04FF6FF7183
:10154000A981E98200F0E00085F820003078F028D9
:1015500001D986F800B04846BDE8FE8F5D00002046
:1015600064000020B814002006F5000808B500212A
:101570008DF800108DF801000E489DF80020435CA6
:10158000491C1A44C9B28DF80020B829F5D3D0B24D
:10159000C043401C8DF80000B822064948F24700BD
:1015A00000F00AF80222694648F2FF0000F004F851
:1015B000002008BD4EF400082DE9F04115460E4606
:1015C00004460027FFF724FB2820FFF7EBFAFFF77C
:1015D0006BFB200AFFF7E6FAFFF766FBE0B2FFF7C6
:1015E000E1FAFFF761FB002408E0305DFFF7DAFA6B
:1015F000FFF75AFB070003D1641CE4B2AC42F4D3FA
:10160000FFF72CFB3846BDE8F08100002DE9F84FCC
:10161000DFF8A091002209F1040A0AF1040B4FF04F
:101620000F080BF1040E01260B6896403340B342BD
:1016300071D14C68022C01D0122C11D1D40800EBCE
:1016400084073D6A5407E40E08FA04FC25EA0C05F9
:10165000D1F810C00CFA04FC4CEA050CC7F820C005
:1016600007685400032591F804C0A5400CF0030C52
:10167000AF430CFA04FC4CEA070CC0F800C04F68FA
:10168000012F05D0022F03D0112F01D0122F11D11D
:101690008768D1F80CC0AF430CFA04FC4CEA070C85
:1016A000C0F808C04768B7430E79C6F300169640E5
:1016B0003E434660C668AE438D68A5403543C5606D
:1016C0004C68E4006FD53C4C256845F480452560A6
:1016D000246822F0030504F480440094374C2E194A
:1016E000D6F808789407250F08FA05F4A743344C78
:1016F000A04201D100242EE0324CA04201D10124AD
:1017000029E0314CA04201D1022424E02F4CA04218
:1017100002D103241FE046E02D4CA04201D1042455
:1017200019E02C4CA04201D1052414E02A4CA0421F
:1017300001D106240FE0294CA04201D107240AE080
:10174000274CA04201D1082405E0264CA04201D13B
:10175000092400E00A24AC403C43C6F80848D9F804
:1017600000404D464E689C43F60300D51C432C6058
:10177000DAF8004055464E689C43B60300D51C433A
:101780002C60DBF800405D464E689C43F60200D5B5
:101790001C432C60DEF8004075464E689C43B60240
:1017A00000D51C432C60521C102AFFF43CAFBDE84E
:1017B000F88F0000003C01404438024000300140F6
:1017C000000002400004024000080240000C0240F9
:1017D000001002400014024000180240001C0240A9
:1017E00000200240002402400069084000D001208F
:1017F00070470AB1816170470904FBE7014800683E
:10180000704700003400002002480168491C016054
:1018100070470000340000200B4810B5016841F407
:1018200000710160016841F480610160016841F468
:1018300080710160052000F0BFF90F2000F006F86C
:1018400000F08AF9002010BD003C024010B50446AB
:1018500000F060FC4FF47A71B0FBF1F000F094FFFF
:1018600000222146501E00F087F9002010BD2DE90E
:10187000F041044690F8A00015460F4601281DD0FF
:10188000012684F8A060022084F8A10005EB850001
:1018900000EBC50004EB800034223830FEF7F8FE80
:1018A0002A463946204604F0B1FC2068466284F896
:1018B000A160002084F8A000BDE8F0810220FBE7D1
:1018C00070B5040004D094F8A100002510B106E022
:1018D000012070BD84F8A050204600F06FF802206F
:1018E00084F8A1002068816921F070418161D4E908
:1018F00001100143D4E903021043014320688269C7
:1019000011438161206882682B490A408260A08A65
:10191000020420688368A669334313438360206808
:10192000C2680A40C260A08B02042068C368266AAD
:1019300033431343C360206802690A400261A08CEC
:10194000020420680369A66A3343134303612068D5
:1019500042690A404261A08D010420684269236BFC
:101960001A430A43426194F83500020294F83600A3
:1019700001042068C36A03F07F43C3622068C36A1E
:1019800094F83460114333430B43C3622068416BC6
:1019900041F0040141632068416B41F00201416361
:1019A0002068816941F001018161C4F8A4500120DF
:1019B00084F8A100002070BD00F800F030B5364872
:1019C00087B00025016841F080610160006800F087
:1019D0008060059030481438016841F400010160CE
:1019E000016801F400010591016841F00201016004
:1019F000016801F002010591016841F020010160D8
:101A0000016801F020010591016841F04001016089
:101A1000016801F040010591016841F08001016019
:101A2000016801F080010591016841F48071016055
:101A30000068032400F480700590202000900120AD
:101A4000CDE90204019069461448FFF7DFFD4FF429
:101A5000806000900220CDE901050E20CDE9034011
:101A600069460F48FFF7D2FD4FF40C6000906946BD
:101A70000C48FFF7CBFD4FF47E40009069460A48C2
:101A8000FFF7C4FD40F2F760009069460748FFF792
:101A9000BDFD07B030BD00004438024000040240E4
:101AA0000014024000180240001C024000200240C6
:101AB00070B5044690F8A0000E46012820D00125FC
:101AC00084F8A050022084F8A10003EB830000EB0F
:101AD000C30004EB800141F8386F886A3044C1E9E3
:101AE0000102C86A1044C8601A46204604F08EFB02
:101AF0002068456284F8A150002084F8A00070BDE1
:101B0000022070BD2DE9F041044690F8A0000F4678
:101B100001281FD0012584F8A050022084F8A100DC
:101B200003EB830000EBC30004EB80010026E1E936
:101B30000E672046C1E90262C1E90A721A4604F042
:101B400065FB2068456284F8A15084F8A0600020FD
:101B5000BDE8F0810220FBE708B50020009008BD39
:101B600000F01F02012191404009800000F1E020B7
:101B7000C0F8001170470000F0B40E4B1B68C3F3AF
:101B80000223C3F10704042C00D904241D1D072DD2
:101B900001D2002300E0DB1E012606FA04F56D1ECB
:101BA0000D409D409E40761E164045EA0601F0BC61
:101BB00004F0DFBB0CED00E0064A00F007011068FE
:101BC0004FF6FF03184040EA012003490843106024
:101BD000704700000CED00E00000FA052DE9F84325
:101BE0001D48016841F0805101600068012700F044
:101BF00080500090380490FAA0F0DFF86080B0FACE
:101C000080F048F82070FFF7F9FD04464FF47A752C
:101C1000134E04E0FFF7F2FD001BA84213D87068D2
:101C2000C003F7D54FF4003090FAA0F0B0FA80F07E
:101C300048F82070FFF7E2FD044607E0FFF7DEFDFD
:101C4000001BA84202D90320BDE8F8837068800316
:101C5000F4D50020F8E700004038024000000E42B2
:101C6000007000402DE9F84F04460068DFF87882E4
:101C70009E4DC10747F6C07A4FF0E0464FF0010B8A
:101C80004FF0000901D180074BD59949C1F8689000
:101C9000FFF7B4FD074604E0FFF7B0FDC01B642862
:101CA0007ED828680001F7D420789249C0070DD06B
:101CB0009AFAAAF26068B2FA82F2904096FAA6F313
:101CC000A268B3FA83F39A40104308602078800733
:101CD00018D5086896FAA6F200F0E040B2FA82F24F
:101CE000D0406268237B920142EA036242EA0070BC
:101CF0000860D8F80010E26921F01F01521E11435C
:101D0000C8F800107A49C1F868B0FFF777FD0746B8
:101D100004E0FFF773FDC01B642841D82868000168
:101D2000F7D52068410701D4000776D57049C1F87E
:101D30007090FFF763FD074604E0FFF75FFDC01BEF
:101D400064282DD82868C0438000F6D520786A4FD3
:101D500040074FF0706C29D5386896FAA6F100F06C
:101D6000E040B1FA81F1C8409AFAAAF22169B2FAC8
:101D700082F291409CFAACF36269B3FA83F39A4021
:101D8000114396FAA6F2B2FA82F29040014339600A
:101D9000D8F800106FF0FF0321F4F851226A00E038
:101DA00079E003EB02221143C8F800102078000705
:101DB00023D538689CFAACF100F07060B1FA81F17B
:101DC000C8409AFAAAF22169B2FA82F291409CFACA
:101DD000ACF2B2FA82F29040014396FAA6F2A06900
:101DE000B2FA82F2904001433960D8F80010626A7A
:101DF00021F440311143C8F800103D49C1F870B0DA
:101E0000FFF7FCFC064604E0FFF7F8FC801B6428A3
:101E100041D82868C0438000F6D42078800651D588
:101E200032484F464030016841F0805101600068FF
:101E3000324E00F080500090306840F48070306086
:101E4000FFF7DCFC054604E0FFF7D8FC401B6428E4
:101E500021D83068C005F7D5264E143E3068218D54
:101E600000F4407001F4407188422BD0306824495E
:101E700020F44070C1F800B00F603060800710D5CA
:101E8000FFF7BCFC054641F2883707E0FFF7B6FCD8
:101E9000401BB84202D90320BDE8F88F30688007A4
:101EA000F4D5A06A1149C0F301220831032A13D0E6
:101EB000086820F4F81008603068218DC1F30B0128
:101EC000084330602078C00604D50E4994F82C00F1
:101ED000C1F8E0010020DFE70A680B4B22F4F8129A
:101EE000184002430A60E7E78C380240003802409D
:101EF00000004742843802408838024000700040A9
:101F0000400E474200104742FFFCFF0F2DE9F05FF3
:101F1000DFF8F8A104460F46DAF80000DFF8F08198
:101F200000F00F02C8B27A49814641F2883608F1C2
:101F30000808BA4261D202468AF80020DAF80000A6
:101F400000F00F00B8427DD12078800707D5D8F87F
:101F50000020A36822F0F0021A43C8F8002020787D
:101F6000C0072DD0606801281AD002281BD0032892
:101F700019D009688907002964DAD8F800104746A3
:101F800021F003010143C8F80010FFF737FC0546B4
:101F9000606801280FD0022818D003281CD027E041
:101FA00009688903E7E709688901E4E7FFF726FC88
:101FB000401BB04258D83868C0F381000128F5D1E1
:101FC00088E0FFF71BFC401BB0424DD83868C0F3D7
:101FD00081000228F5D17DE03868FFF70FFC401B37
:101FE000B042F9D940E0FFF709FC401BB0423BD8B2
:101FF000386810F00C0FF6D16CE02078800707D518
:10200000D8F80020A36822F0F0021A43C8F8002094
:102010002078C0074CD06068012828D0022829D039
:10202000032827D009688907002949DAD8F8002051
:1020300022F003020243C8F80020FFF7DFFB054649
:10204000606800E03CE001281DD0022829D0032868
:1020500038D0B3464646306810F00C0F28D0FFF752
:10206000CDFB411B5945F6D90320BDE8F09F096817
:102070008903D9E709688901D6E7FFF7BFFB411B50
:10208000594502D9F0E7B34646463068C0F38100AF
:102090000128F2D10CE0FFF7B1FB411B594502D9F1
:1020A000E2E7B34646463068C0F381000228F2D129
:1020B0008AF80090DAF8000000F00F00B84209D06A
:1020C0000120D2E744462068FFF798FB401BB0424E
:1020D000F9D9C9E72078400707D5D8F80010E26899
:1020E00021F4E0511143C8F800102078000708D50A
:1020F000D8F80010226921F4604141EAC201C8F811
:1021000000100F20FFF7A2FB0020AEE7003C0240CA
:102110000038024010B500F043F808490968F02281
:1021200092FAA2F201F0F001B2FA82F2D140044A2E
:10213000515CC8400349086010BD000008380240E7
:10214000F4AC00082000002010B5FFF7E3FF0749BA
:1021500009684FF4E05292FAA2F201F4E051B2FAA7
:1021600082F2D140024A515CC84010BD083802409A
:10217000F4AC000810B5FFF7CDFF074909684FF42C
:10218000604292FAA2F201F46041B2FA82F2D140C6
:10219000024A515CC84010BD08380240F4AC000847
:1021A00030B51948006810F00C01184812D0184CCE
:1021B00004290ED008290DD1134A121F1168136883
:1021C00001F03F015D0247F6C07304D5B4FBF1F0A6
:1021D00003E0204630BDB0FBF1F01168194093FADE
:1021E000A3F3B3FA83F3D940484311684FF4403264
:1021F00092FAA2F201F44031B2FA82F2D140491CC3
:102200004900B0FBF1F030BD083802400024F40072
:1022100040787D012DE9F84F04460078DFF8FCA2F4
:10222000BF4DC0074FF0000648D0DAF80010504606
:10223000C1F38101012908D00068C0F381000228A0
:102240000AD1281D0068400206D52868800335D5CC
:102250006068002873D031E0DFF8C49209F1020908
:1022600089F80060FFF7CAFA074641F2883804E0AF
:10227000FFF7C4FAC11B41457AD828688003F7D418
:10228000207989F80000606860B1FFF7B7FA074667
:1022900004E0FFF7B3FAC11B4145EDD8286880037D
:1022A000F7D50BE0FFF7AAFA074604E0FFF7A6FA16
:1022B000C11B4145E0D828688003F7D42078DFF8B7
:1022C0006492800744D5DAF80010504611F00C0FE4
:1022D0004FF0F80809D00068C0F3810002280BD144
:1022E0008E48001F0068400206D42868800714D575
:1022F000E068012823D110E0E068D0B10120C9F8DE
:102300000000FFF77BFA074604E0FFF777FAC01BEF
:102310006428B1D828688007F7D5286898FAA8F209
:102320002169B2FA82F220F0F80091400843286057
:102330000EE0C9F80060FFF761FA074605E0EAE041
:10234000FFF75CFAC01B642812D828688007F7D40E
:102350002078000725D5DFF8C4817348616908F14A
:102360006C0881B101210160FFF748FA074605E0DA
:102370007EE0FFF743FAC01B642879D8D8F8000044
:102380008007F6D50DE00660FFF738FA074604E04F
:10239000FFF734FAC01B64286AD8D8F80000800719
:1023A000F6D42078400753D55C483830016841F0B6
:1023B000805101600068DFF8748100F08050009067
:1023C000D8F8001041F48071C8F80010FFF716FA31
:1023D000074604E0FFF712FAC01B642848D8D8F873
:1023E0000000C005F6D5DFF834B10BF1680B8BF8AF
:1023F0000060FFF703FA074641F2883804E0FFF770
:10240000FDF9C11B41457ED8DBF800008007F6D4FA
:10241000207A8BF80000A06868B1FFF7EFF9074653
:1024200004E0FFF7EBF9C11B41456CD8DBF8000075
:102430008007F6D50CE0FFF7E1F9074604E0FFF767
:10244000DDF9C11B41455ED8DBF800008007F6D4FA
:10245000A069E8B3DAF80010C1F3810102295AD06B
:10246000022806D0C9F86060FFF7C8F904464DE0BD
:1024700049E04F46C9F86060FFF7C0F9064604E03E
:10248000FFF7BCF9801B64283DD828688001F7D489
:10249000D4E90701084347F6C07191FAA1F1626AD5
:1024A000B1FA81F18A40A16A4FF0FF3303EB510189
:1024B0004FF4403393FAA3F3B3FA83F399400A43FA
:1024C00010434FF0706292FAA2F2B2FA82F200E088
:1024D0001FE0E16A914008431049091F086001208C
:1024E0003866FFF78BF9044604E0FFF787F9001B15
:1024F000642808D828688001F7D50AE0FFF77EF93C
:10250000001B642802D90320BDE8F88F28688001E9
:10251000F4D40020F8E70120F6E700000838024074
:102520000038024000004742800E474200700040E1
:1025300070B50D46040003D094F82C0010B107E0EC
:10254000012070BD002084F82D00204600F012F814
:10255000022084F82C00211D2068FEF75BFCD4E9E2
:1025600000022946FEF7A6FC012084F82C0000207A
:1025700070BD0000304800B5016887B041F001012E
:102580000160006800F0010005902B4808380168E0
:1025900041F004010160016801F004010591016846
:1025A00041F008010160016801F00801059101682E
:1025B00041F010010160016801F01001059101680E
:1025C00041F020010160016801F0200105910168DE
:1025D00041F0400101600068694600F0400005904C
:1025E0000D20009002200190012002900320039012
:1025F0000C2004901148FFF709F84CF2037000908A
:1026000069460F48FFF702F84FF68370009069465D
:102610000C48FEF7FBFF4FF63F00009069460A4862
:10262000FEF7F4FF48F23710009069460748FEF7BE
:10263000EDFF07B000BD000038380240000802403E
:10264000000C02400010024000140240001802403A
:1026500010B5044690F82C00022809D0022084F816
:102660002C002068FEF7FCFB012084F82C000020E1
:1026700010BD70B5044690F82C000D4602280CD011
:10268000022084F82C002068FEF7F0FB286802285E
:1026900004D0012084F82C00002070BD0520F9E74B
:1026A00070B515460E46040003D094F8490010B1E9
:1026B00007E0012070BD002084F84800204600F0AB
:1026C0001BF804F108012068FEF73AFB3146A268C6
:1026D0002068FEF771FBD4E901022946236BFEF75F
:1026E0000FFBA168206850F8212042F0010240F859
:1026F0002120002070BD00001A4800B5016887B095
:1027000041F001010160006800F0010005901548EA
:102710000838016841F008010160016801F0080112
:102720000591016841F0100101600068694600F000
:10273000100005904EF2B37000900220019001202D
:102740000290032003900C2004900748FEF75EFFE0
:102750004FF68070009069460448FEF757FF07B0B7
:1027600000BD000038380240000C0240001002405A
:102770004FF0E0210428086903D020F0040008612C
:10278000704740F00400FAE710B5401EB0F1807FBA
:1027900001D3012010BD4FF0E02460610F216017CC
:1027A00003F0E7FD0020A06107202061002010BD9C
:1027B0002DE9F041044690F838000D4601283CD040
:1027C000012684F83860022084F83900A2B3042A74
:1027D00045D02068082A54D0D5E90027E968036A63
:1027E00023F480530362D0F81CC0036A2CF4407CAD
:1027F0004CEA07274FF6FF7C27F470470CEA0131BB
:1028000039434FF4204723F4204307EA02321A43A6
:10281000C16102622068C16921F44061C161206820
:10282000C169AA6841EA0221C16184F839600020C7
:1028300084F83800BDE8F08101E00220FAE7D5E92C
:102840000012EB68206805F0F3FD2068816921F033
:102850000C01816120688169AA6811430FE0D5E904
:102860000012EB68206805F025FE2068816921F4DC
:102870004061816120688169AA6841EA0221816121
:10288000D3E7D5E9002C2F7B016A21F48071016226
:10289000C169036A21F0030141EA0C0121F0F00C47
:1028A00039074FF420674CEA116123F4206307EAEB
:1028B00002221A43C16102622068C16921F00C0141
:1028C000C1612068C169AA681143ADE710B5040071
:1028D00003D094F8390010B107E0012010BD0020AA
:1028E00084F83800204600F00DF8022084F8390002
:1028F000211D206805F030FD012084F839000020FA
:1029000010BD0000124800B5026887B0002142F0F7
:1029100001020260006800F0010005900C481038C8
:10292000026842F001020260006800F001000590B8
:10293000202000900220CDE9010103200390012016
:10294000049069460348FEF761FE07B000BD000031
:10295000403802400000024010B5044600680122E1
:1029600005F05AFD2068016841F001010160002076
:1029700010BD90F838300022012B0AD0012380F8D6
:10298000383041B1042909D008290AD00C290DD1C9
:102990000AE00220704701684A6B07E001688A6B11
:1029A00004E00168CA6B01E001680A6C002180F84C
:1029B000381010467047704738B5016804460868FB
:1029C000CA68C0F3000002F4807238B132B10868FE
:1029D00048680090E06B40F00100E06308684A69D5
:1029E000C0F3400002F0010238B132B10868486813
:1029F0000090E06B40F00400E06308684A69C0F3AF
:102A0000800002F0010238B132B1086848680090D5
:102A1000E06B40F00200E06308684A69C0F3C00060
:102A200002F0010238B132B1086848680090E06BEA
:102A300040F00800E0630868C968C0F3401001F086
:102A4000200118B111B1204606F038FC2068016859
:102A5000C068C1F3C01100F0800019B110B1204668
:102A600006F03AFD21680868CA68C0F3801002F0D9
:102A70004002012568B162B1CA68204622F04002D6
:102A8000CA6094F8391032290CD080F8395000F01F
:102A9000EDF8E06B002804D084F839502046FFF7A9
:102AA0008AFF38BD222180F83910F0E770B50400A4
:102AB00004D094F83900002510B106E0012070BD63
:102AC00084F83850204600F021F8022084F83900BC
:102AD0002068C16821F40051C160204606F042FC24
:102AE0002068016921F4904101612068416921F069
:102AF0002A0141612068C16841F40051C160E56369
:102B0000012084F83900002070BD000030B5044673
:102B10000068204987B0884239D11F48016841F0D8
:102B200001010160006800F0010005901A481430AE
:102B3000016841F0100101600068012100F01000FF
:102B400005904FF4007000900220CDE90101039040
:102B50000720124D049069462846FEF757FD2815B8
:102B6000009069462846FEF751FD2068C16821F0B3
:102B70004001C1602068C16841F02001C16025208A
:102B8000FEF7EEFF032211462520FEF7F5FF07B002
:102B900030BD00000010014030380240000002400B
:102BA0002DE9F047044690F8390099460D46012872
:102BB00001D0122857D125B31AB394F83800012850
:102BC00051D0012684F838600027E76394F8390073
:102BD000122819D0222084F83900A285E2854FF40A
:102BE0008058E08D4B46401EE085A0684FF0000203
:102BF00040454FF02001204616D106F0A0FCB0B9A8
:102C000004E00120BDE8F0873220E4E720690028D5
:102C10002068406803D0C1B225F8011B12E0C0F360
:102C2000080125F8021B0DE006F089FC08B103201D
:102C3000E8E7206900282068406801D000F07F00A4
:102C400005F8010BE08D0028CBD194F8390032282B
:102C500005D084F8396084F838700020D2E712205B
:102C600084F83900F7E70220CCE770477047FEE7A9
:102C700070B50D4C0025C4F890520C48016821F441
:102C800040610160016841F480610160C4F89452C0
:102C9000022004F5247406F059FD01202060022072
:102CA00006F054FD256070BD00804342001C0240C8
:102CB0000E4810B5016886B041F0800101600068DF
:102CC000012400F0800005903020CDE900040220AE
:102CD000CDE9024069460648FEF798FC0548C0F871
:102CE0009442C0F8904206B010BD00003038024057
:102CF000001C02400080434270B50D4C0026C4F811
:102D000090620C48016821F440610160016841F45F
:102D1000806101600125C4F89452022004F52474F6
:102D200006F014FD2560022006F010FD266070BD3F
:102D300000804342001C02402DE9F04781461648BE
:102D40000024016821F44061016001680160134EB4
:102D5000254627464FF00108C6F89072022006F07B
:102D6000F5FCC6F890826006040ED6F8140208B18D
:102D7000641CE4B2012006F0E9FC6D1CEDB2082DE4
:102D8000EAD3B9F1000F04D0FFF772FF2046BDE887
:102D9000F087FFF7B1FFF9E7001C024000804342D3
:102DA0002DE9F04105461448016821F440610160B5
:102DB000016841F480610160104E0027C6F89072EE
:102DC0003C464FF00108E809C6F894026806050E73
:102DD000022006F0BBFCC6F89082022006F0B6FC8A
:102DE000C6F89072022006F0B1FC641CE4B2082C14
:102DF000E9D3BDE8F0810000001C0240008043429E
:102E000070B50D48016821F440610160016841F42A
:102E100080610160094C0120C4F89402C4F890025A
:102E2000042004F5247406F091FC0025656004205C
:102E300006F08CFC256070BD001C024000804342FF
:102E40000E4810B5016821F440610160016841F449
:102E5000806101600A4C0020C4F89002C4F894021A
:102E6000042004F5247406F071FC012020606060E9
:102E7000BDE81040042006F069BC0000001C0240C0
:102E80000080434270B512480024016821F440617B
:102E90000160016801600F4D0126C5F8946230465B
:102EA00006F054FCC5F89062012006F04FFC07E0E4
:102EB000641CE4B2FA2C03D9FFF7C2FF012070BDF5
:102EC000D5F814020028F3D1C5F8900270BD0000B7
:102ED000001C02400080434270B51B4886B00025AC
:102EE000016841F001010160016801F001010591F3
:102EF000016841F004010160016801F004010591DD
:102F0000016841F0800101600068032400F0800046
:102F1000059002200126CDE90204CDE9006569464D
:102F20000A48FEF773FB700303948DE8610069465D
:102F30000748FEF76BFB0C20009069460548FEF73A
:102F400065FB06B070BD0000303802400000024052
:102F500000080240001C02402DE9F0470126304CD9
:102F60007703DFF8C080DFF8C090304D01281DD016
:102F70002078A0B108212846FEF736FCC0B1042114
:102F80002846FEF731FC98B139464046FEF72CFC46
:102F900070B101214846FEF727FC012808D008211E
:102FA0002846FEF721FC012826D037E02670E1E70D
:102FB0000A2006F0A9FB0020207008212846FEF711
:102FC00013FC80B104212846FEF70EFC70B139468F
:102FD0004046FEF709FC58B101214846FEF704FCC3
:102FE000012807D01AE00120BDE8F0870220FBE7A6
:102FF0000320F9E70420F7E704212846FEF7F4FB55
:1030000001280BD139464046FEF7EEFB012805D1D9
:1030100001214846FEF7E8FB00B926700020E3E7EF
:10302000480000200008024000000240001C02404E
:1030300070B50E490E4A064608881268002422B16F
:103040003046BDE8704002F0BFBE4D8800214543C8
:10305000084602F0D1FC02F07FFEB1B2054801E063
:103060000180641CAC42FBD370BD0000B81400208A
:1030700070150020000008602DE9F05F394C3A4DD2
:10308000A071296839B102F0BFFEE88A2080288B40
:103090006080BDE8F09F33492C232A2589884FF0B2
:1030A000F00949F2413A2B2645F2105B4FF4305EAD
:1030B0004FF448774FF4A07845F2103C4FF4F0728B
:1030C00058B1A4F80080A4F80290514501D06145A0
:1030D00029D123816581A68139E0A4F80090A4F864
:1030E0000280514501D0614508D123816581A681C7
:1030F000614531D1A4F8008062802DE0594508D1A6
:10310000A4F808E04FF4285060814FF42C50A081BF
:1031100006E0A1F5C85063381ED123816681A581E0
:103120002280678018E0594508D1A4F808E04FF4E0
:10313000285060814FF42C50A08106E0A1F5C850C2
:10314000633804D123816581A6812780628061452F
:1031500002D12280A4F80280BDE8F05F002002F0D6
:103160006FBB0000B8140020701500202DE9FE4F41
:103170000026A2EB000882465F1A701E354689467B
:10318000B8F1000F02DD4FF0010102E003D14FF072
:103190000001019102E0C8F100080190002F02DD5A
:1031A0004FF0010002E003D14FF00000009002E078
:1031B000C7F1000700904046B84501DD044600E035
:1031C0003C46601C4FF0000B029015E01FFA89F19D
:1031D0001FFA8AF000F016F846443D44A64202DD8C
:1031E0000199361B8A44A54202DD00992D1B8944B2
:1031F0000BF101001FFA80FB02998B45E6DDBDE86B
:10320000FE8F000010B5084A084C126822B12268EF
:10321000BDE8104002F00CBE02F0EEFB02F09CFD97
:1032200003492088088010BD701500204C00002044
:10323000000008602DE9FC5F80460024154603204D
:103240000F46A0EB450649E0781B81B208EB040A63
:1032500001901FFA8AF0FFF7D5FF381B81B208EB07
:10326000050900901FFA89F0FFF7CCFF07EB040B6C
:103270001FFA8BF11FFA89F0FFF7C4FF07EB05096E
:103280001FFA89F11FFA8AF0FFF7BCFFA8EB040AC6
:103290001FFA89F11FFA8AF0FFF7B4FFA8EB0509BE
:1032A0001FFA8BF11FFA89F0FFF7ACFF019881B28A
:1032B0001FFA8AF0FFF7A6FF009881B21FFA89F083
:1032C000FFF7A0FF641C002E03DA06EB8406B61D90
:1032D00004E0601B06EB80066D1E0A36AC42B3DDCF
:1032E000BDE8FC9F2DE9F04104463A480D460068D0
:1032F00020B12046BDE8F04102F09ABD364E270AC3
:103300003146B0884989A0F513434FEA1528413B5F
:103310000CD0A0F5A643103B08D0A0F5AA43103B63
:1033200011D0A0F5C853633B27D04BE0084602F00C
:1033300007FD384602F0F8FCE0B202F0F5FCB08977
:1033400002F0FEFC38E0084602F0FAFC384602F0D3
:10335000EBFC7089401C80B202F0F2FCE0B202F09B
:10336000E3FCB08902F0ECFC404602F0DDFCB089E1
:10337000401C80B202F0E4FC21E0B07918B930883A
:10338000001B401E84B2084602F0DAFC270A3846C9
:1033900002F0CAFCE0B202F0C7FC384602F0C4FCFE
:1033A000E0B202F0C1FCB08902F0CAFC404602F073
:1033B000BBFCE8B202F0B8FC404602F0B5FCE8B253
:1033C00002F0B2FC054930890880881C0280BDE803
:1033D000F081000070150020B8140020FEFF076087
:1033E0002DE9F8431F46144B804608981B6833B1FB
:1033F00000903B46404602F039FDBDE8F883A2EB61
:103400000802521C96B20C4685B2DFF830900FE0ED
:103410002146404602F0F0FA02F09EFC00204946A8
:1034200002E00D80401C80B2B042FAD3641CA4B20A
:10343000BC42EDD9E1E700007015002000000860F3
:103440002DE9F04F95B002F085FEFE4D4FF0010AD8
:10345000A5F15009A88049F2413B45F2103645F2EA
:10346000105441F6631818B102F05AFD02F08BB9FE
:10347000F5480027016841F002010160006810A9C9
:1034800000F0020000902020CDE9100A0320CDE9D1
:1034900012A0EE48FEF7BAF84FF020414846C9F8AE
:1034A0000010EB49C0E901171021C9F80C70C0E900
:1034B0000471C9F818700902C9F81C70C0E90971D3
:1034C0008900C0E90B71C9F834708901C9E90E712E
:1034D00046210B910F20CDE90907CDE902070490A1
:1034E000D8480F9702AA09A908975038FFF7D8F8CB
:1034F000322006F009F9D32002F022FC02F06EF926
:10350000A88002F06BF9A88002F068F94FF6FF720C
:1035100002EA0020A88002F061F9A9885F4608430A
:10352000A880B84248D0D42002F00AFC02F056F934
:10353000A88002F053F9A88002F050F902EA0020B6
:10354000A88002F04BF9A9880843A880B04233D084
:103550004FF45A4002F0F4FB02F040F9A8804FF417
:103560005B4002F0EDFB02F039F902EA0020A8808E
:103570004FF45C4002F0E4FB02F030F9A988084304
:10358000A880B0F5004F7DD0A04215D0A12002F058
:10359000D7FB02F023F9A88002F020F902EA00200C
:1035A000A88002F01BF9A9880843A0F5AE41A880C5
:1035B000613901D1A5F80480A988A6A0FCF7F4FE22
:1035C000A888B8427ED1CF2002F0BAFB002002F0DA
:1035D000ABFBC12002F0A8FB302002F0A5FBED20E0
:1035E00002F0AEFB642002F09FFB032002F09CFB84
:1035F000122002F099FB812002F096FBE82002F0F5
:103600009FFB852002F090FB102002F08DFB7A20BA
:1036100002F08AFBCB2002F093FB392002F084FBFE
:103620002C2002F081FB002002F07EFB342002F00F
:103630007BFB022002F078FBF72002F081FB2020C8
:1036400002F072FBEA2002F07BFB002002F06CFB30
:10365000002002F069FBC02002F072FB1B2002F088
:1036600063FBC12002F06CFB012002F05DFBC52072
:1036700002F066FB302002F057FB302002F054FBD2
:10368000C72000E0B7E002F05BFBB72002F04CFB84
:10369000362002F055FB482002F046FB3A2002F0AB
:1036A0004FFB552002F040FBB12002F049FB002007
:1036B00002F03AFB1A2002F037FBB62002F040FB82
:1036C0000A2000E099E002F02FFBA22002F02CFB80
:1036D000F22002F035FB002002F026FB262002F04B
:1036E0002FFB012002F020FBE02002F029FB0F203D
:1036F00002F01AFB2A2002F017FB282002F014FB2C
:10370000082002F011FB0E2002F00EFB082002F050
:103710000BFB542002F008FBA92002F005FB43201C
:1037200002F002FB0A2002F0FFFA0F2002F0FCFA7E
:10373000002002F0F9FA002002F0F6FA002002F070
:10374000F3FA002002F0F0FAE12002F0F9FA00208A
:1037500002F0EAFA152002F0E7FA172002F0E4FA84
:10376000072002F0E1FA112002F0DEFA062002F052
:10377000DBFA2B2002F0D8FA562002F0D5FA3C20D2
:1037800002F0D2FA052002F0CFFA102002F0CCFAB3
:103790000F2002F0C9FA3F2002F0C6FA3F2002F0E3
:1037A000C3FA0F2002F0C0FA2B2002F0C9FA002061
:1037B00002F0BAFA002002F0B7FA012002F0B4FADF
:1037C0003F2002F0B1FA2A2002F0BAFA002002F0FB
:1037D000ABFA002002F0A8FA002002F0A5FAEF20D0
:1037E00002F0A2FA112002F0ABFA782005F08CFF6B
:1037F000292001F00BBFAC80DEE6B0427ED1ED2087
:1038000002F09EFA012002F08FFAFE2002F08CFAFC
:10381000EE2002F095FADE2002F086FA212002F076
:1038200083FAF12002F08CFA012002F07DFADF2009
:1038300002F086FA102002F077FAC42002F080FA33
:103840008F200FE0B81400203038024000040240FE
:10385000040100A0204C43442049443A25780D0A35
:103860000000000002F060FAC62002F069FA0020B1
:1038700002F05AFAE22002F057FAE22002F054FA7B
:10388000E22002F051FABF2002F05AFAAA2002F018
:103890004BFAB02002F054FA0D2002F045FA002055
:1038A00002F042FA0D2002F03FFA002002F03CFA4A
:1038B000112002F039FA002002F036FA192002F045
:1038C00033FA002002F030FA212002F02DFA002015
:1038D00002F02AFA2D2002F027FA002002F024FA42
:1038E0003D2002F021FA002002F01EFA5D2002F0D5
:1038F0001BFA002002F018FA5D2000E0FEE302F05F
:1039000013FA002002F010FAB12002F019FA802018
:1039100002F00AFA002002F007FA8B2002F004FA03
:10392000002002F001FA962002F0FEF9002002F0D9
:10393000FBF9B22002F004FA002002F0F5F90020B1
:1039400002F0F2F9022002F0EFF9002002F0ECF9A7
:10395000032002F0E9F9002002F0E6F9B32002F0BA
:10396000EFF9002002F0E0F9002002F0DDF900207C
:1039700002F0DAF9002002F0D7F9002002F0D4F9C1
:10398000002002F0D1F9002002F0CEF9002002F070
:10399000CBF9002002F0C8F9002002F0C5F90020A0
:1039A00002F0C2F9002002F0BFF9002002F0BCF9D9
:1039B000002002F0B9F9002002F0B6F9002002F070
:1039C000B3F9002002F0B0F9002002F0ADF90020B8
:1039D00002F0AAF9002002F0A7F9002002F0A4F9F1
:1039E000002002F0A1F9002002F09EF9002002F070
:1039F0009BF9B42002F0A4F98B2002F095F9002085
:103A000002F092F9962002F08FF9002002F08CF972
:103A1000A12002F089F9002002F086F9B52002F019
:103A20008FF9022002F080F9002002F07DF90320D6
:103A300002F07AF9002002F077F9042002F074F91C
:103A4000002002F071F9B62002F07AF9002002F0AD
:103A50006BF9002002F068F9B72002F071F900203C
:103A600002F062F9002002F05FF93F2002F05CF9F9
:103A7000002002F059F95E2002F056F9002002F011
:103A800053F9642002F050F9002002F04DF98C2027
:103A900002F04AF9002002F047F9AC2002F044F9A4
:103AA000002002F041F9DC2002F03EF9002002F093
:103AB0003BF9702002F038F9002002F035F990202F
:103AC00002F032F9002002F02FF9EB2002F02CF97D
:103AD000002002F029F9DC2002F026F9002002F093
:103AE00023F9B82002F02CF9002002F01DF9002083
:103AF00002F01AF9002002F017F9002002F014F980
:103B0000002002F011F9002002F00EF9002002F06E
:103B10000BF9002002F008F9BA2002F011F9242074
:103B200002F002F9002002F0FFF8002002F0FCF899
:103B3000002002F0F9F8C12002F002F9202002F082
:103B4000F3F8002002F0F0F8542002F0EDF8002025
:103B500002F0EAF8FF2002F0E7F8002002F0E4F8B3
:103B6000C22002F0EDF80A2002F0DEF8002002F098
:103B7000DBF8042002F0D8F8002002F0D5F8C320CA
:103B800002F0DEF83C2002F0CFF8002002F0CCF882
:103B90003A2002F0C9F8002002F0C6F8392002F0FD
:103BA000C3F8002002F0C0F8372002F0BDF8002072
:103BB00002F0BAF83C2002F0B7F8002002F0B4F8A6
:103BC000362002F0B1F8002002F0AEF8322002F008
:103BD000ABF8002002F0A8F82F2002F0A5F8002092
:103BE00002F0A2F82C2002F09FF8002002F09CF8CE
:103BF000292002F099F8002002F096F8262002F021
:103C000093F8002002F090F8242002F08DF80020B4
:103C100002F08AF8242002F087F8002002F084F8ED
:103C2000232002F081F8002002F07EF83C2002F010
:103C30007BF8002002F078F8362002F075F80020BA
:103C400002F072F8322002F06FF8002002F06CF8F7
:103C50002F2002F069F8002002F066F82C2002F014
:103C600063F8002002F060F8292002F05DF80020DF
:103C700002F05AF8262002F057F8002002F054F81B
:103C8000242002F051F8002002F04EF8242002F027
:103C90004BF8002002F048F8232002F045F80020FD
:103CA00002F042F8C42002F04BF8622002F03CF827
:103CB000002002F039F8052002F036F8002002F06A
:103CC00033F8842002F030F8002002F02DF8F020C4
:103CD00002F02AF8002002F027F8182002F024F859
:103CE000002002F021F8A42002F01EF8002002F0CB
:103CF0001BF8182002F018F8002002F015F85020E8
:103D000002F012F8002002F00FF80C2002F00CF87C
:103D1000002002F009F8172002F006F8002002F057
:103D200003F8952002F000F8002001F0FDFFF320D9
:103D300001F0FAFF002001F0F7FFE62001F0F4FFA8
:103D4000002001F0F1FFC52001F0FAFF322001F060
:103D5000EBFF002001F0E8FF442001F0E5FF002028
:103D600001F0E2FF652001F0DFFF002001F0DCFF41
:103D7000762001F0D9FF002001F0D6FF882001F065
:103D8000D3FF002001F0D0FFC62001F0D9FF202092
:103D900001F0CAFF002001F0C7FF172001F0C4FFA7
:103DA000002001F0C1FF012001F0BEFF002001F062
:103DB000BBFFC72001F0C4FF002001F0B5FF0020C9
:103DC00001F0B2FF002001F0AFFF002001F0ACFFD6
:103DD000C82001F0B5FF002001F0A6FF002001F08F
:103DE000A3FF002001F0A0FF002001F09DFFC920EB
:103DF00001F0A6FF002001F097FF002001F094FFE2
:103E0000002001F091FF002001F08EFF002001F062
:103E10008BFF002001F088FF002001F085FF0020CB
:103E200001F082FF002001F07FFF002001F07CFF05
:103E3000002001F079FF002001F076FF002001F062
:103E400073FF002001F070FF002001F06DFF0020E3
:103E500001F06AFFE02001F073FF162001F064FF1B
:103E6000002001F061FF1C2001F05EFF002001F046
:103E70005BFF212001F058FF002001F055FF3620A4
:103E800001F052FF002001F04FFF462001F04CFFEF
:103E9000002001F049FF522001F046FF002001F010
:103EA00043FF642001F040FF002001F03DFF7A2035
:103EB00001F03AFF002001F037FF8B2001F034FFC2
:103EC000002001F031FF992001F02EFF002001F0C9
:103ED0002BFFA82001F028FF002001F025FFB920CA
:103EE00001F022FF002001F01FFFC42001F01CFFA1
:103EF000002001F019FFCA2001F016FF002001F098
:103F000013FFD22001F010FF002001F00DFFD92097
:103F100001F00AFF002001F007FFE02001F004FF9C
:103F2000002001F001FFF32001F0FEFE002001F06F
:103F3000FBFEE12001F004FF162001F0F5FE002059
:103F400001F0F2FE1C2001F0EFFE002001F0ECFE7B
:103F5000222001F0E9FE002001F0E6FE362001F00B
:103F6000E3FE002001F0E0FE452001F0DDFE002030
:103F700001F0DAFE522001F0D7FE002001F0D4FE5D
:103F8000642001F0D1FE002001F0CEFE7A2001F085
:103F9000CBFE002001F0C8FE8B2001F0C5FE002002
:103FA00001F0C2FE992001F0BFFE002001F0BCFE2E
:103FB000A82001F0B9FE002001F0B6FEB92001F002
:103FC000B3FE002001F0B0FEC42001F0ADFE0020E1
:103FD00001F0AAFECA2001F0A7FE002001F0A4FE15
:103FE000D22001F0A1FE002001F09EFED82001F0B9
:103FF0009BFE002001F098FEE02001F095FE0020DD
:1040000001F092FEF32001F08FFE002001F08CFE03
:10401000E22001F095FE052001F086FE002001F06F
:1040200083FE0B2001F080FE002001F07DFE1B20AE
:1040300001F07AFE002001F077FE342001F074FEDA
:10404000002001F071FE442001F06EFE002001F01E
:104050006BFE4F2001F068FE002001F065FE61203C
:1040600001F062FE002001F05FFE792001F05CFEAD
:10407000002001F059FE882001F056FE002001F0DA
:1040800053FE972001F050FE002001F04DFEA620C7
:1040900001F04AFE002001F047FEB72001F044FE87
:1040A000002001F041FEC22001F03EFE002001F0A0
:1040B0003BFEC72001F038FE002001F035FED12084
:1040C00001F032FE002001F02FFED62001F02CFE80
:1040D000002001F029FEDD2001F026FE002001F085
:1040E00023FEF32001F020FE002001F01DFEE3205E
:1040F00001F026FE052001F017FE00E00AE3002093
:1041000001F012FE0A2001F00FFE002001F00CFE6B
:104110001C2001F009FE002001F006FE332001F012
:1041200003FE002001F000FE442001F0FDFD002010
:1041300001F0FAFD502001F0F7FD002001F0F4FD40
:10414000622001F0F1FD002001F0EEFD782001F089
:10415000EBFD002001F0E8FD882001F0E5FD0020E6
:1041600001F0E2FD972001F0DFFD002001F0DCFD11
:10417000A62001F0D9FD002001F0D6FDB72001F006
:10418000D3FD002001F0D0FDC22001F0CDFD0020C4
:1041900001F0CAFDC72001F0C7FD002001F0C4FDF9
:1041A000D12001F0C1FD002001F0BEFDD52001F0BD
:1041B000BBFD002001F0B8FDDD2001F0B5FD0020C1
:1041C00001F0B2FDF32001F0AFFD002001F0ACFDE5
:1041D000E42001F0B5FD012001F0A6FD002001F072
:1041E000A3FD012001F0A0FD002001F09DFD0220B3
:1041F00001F09AFD002001F097FD2A2001F094FDC6
:10420000002001F091FD3C2001F08EFD002001F026
:104210008BFD4B2001F088FD002001F085FD5D2025
:1042200001F082FD002001F07FFD742001F07CFD93
:10423000002001F079FD842001F076FD002001F0DE
:1042400073FD932001F070FD002001F06DFDA220B0
:1042500001F06AFD002001F067FDB32001F064FD6C
:10426000002001F061FDBE2001F05EFD002001F0A4
:104270005BFDC42001F058FD002001F055FDCD206C
:1042800001F052FD002001F04FFDD32001F04CFD64
:10429000002001F049FDDD2001F046FD002001F085
:1042A00043FDF32001F040FD002001F03DFDE5203D
:1042B00001F046FD002001F037FD002001F034FD43
:1042C000002001F031FD002001F02EFD022001F060
:1042D0002BFD002001F028FD292001F025FD002004
:1042E00001F022FD3C2001F01FFD002001F01CFD2B
:1042F0004B2001F019FD002001F016FD5D2001F0BA
:1043000013FD002001F010FD742001F00DFD0020D0
:1043100001F00AFD842001F007FD002001F004FDFA
:10432000932001F001FD002001F0FEFCA22001F02D
:10433000FBFC002001F0F8FCB32001F0F5FC0020AC
:1043400001F0F2FCBE2001F0EFFC002001F0ECFCDB
:10435000C42001F0E9FC002001F0E6FCCD2001F0D2
:10436000E3FC002001F0E0FCD32001F0DDFC0020A4
:1043700001F0DAFCDC2001F0D7FC002001F0D4FCD5
:10438000F32001F0D1FC002001F0CEFCE62001F08A
:10439000D7FC112001F0C8FC002001F0C5FC34203E
:1043A00001F0C2FC002001F0BFFC562001F0BCFC73
:1043B000002001F0B9FC762001F0B6FC002001F0ED
:1043C000B3FC772001F0B0FC002001F0ADFC6620CA
:1043D00001F0AAFC002001F0A7FC882001F0A4FC59
:1043E000002001F0A1FC992001F09EFC002001F0CA
:1043F0009BFCBB2001F098FC002001F095FC99206B
:1044000001F092FC002001F08FFC662001F08CFC92
:10441000002001F089FC552001F086FC002001F00D
:1044200083FC552001F080FC002001F07DFC45203C
:1044300001F07AFC002001F077FC432001F074FCCD
:10444000002001F071FC442001F06EFC002001F01E
:104450006BFCE72001F074FC322001F065FC0020C9
:1044600001F062FC552001F05FFC002001F05CFCD3
:10447000762001F059FC002001F056FC662001F086
:1044800053FC002001F050FC672001F04DFC00209F
:1044900001F04AFC672001F047FC002001F044FCD9
:1044A000872001F041FC002001F03EFC992001F042
:1044B0003BFC002001F038FCBB2001F035FC002063
:1044C00001F032FC992001F02FFC002001F02CFCBF
:1044D000772001F029FC002001F026FC442001F0A7
:1044E00023FC002001F020FC562001F01DFC0020E0
:1044F00001F01AFC232001F017FC002001F014FC4D
:10450000332001F011FC002001F00EFC452001F0E9
:104510000BFC002001F008FCE82001F011FC002059
:1045200001F002FC002001F0FFFB992001F0FCFBF0
:10453000002001F0F9FB872001F0F6FB002001F0DC
:10454000F3FB882001F0F0FB002001F0EDFB772069
:1045500001F0EAFB002001F0E7FB662001F0E4FB3C
:10456000002001F0E1FB882001F0DEFB002001F0DB
:10457000DBFBAA2001F0D8FB002001F0D5FBBB201B
:1045800001F0D2FB002001F0CFFB992001F0CCFB21
:10459000002001F0C9FB662001F0C6FB002001F0FD
:1045A000C3FB552001F0C0FB002001F0BDFB5520EE
:1045B00001F0BAFB002001F0B7FB442001F0B4FB8E
:1045C000002001F0B1FB442001F0AEFB002001F01F
:1045D000ABFB552001F0A8FB002001F0A5FBE92072
:1045E00001F0AEFBAA2001F09FFB002001F09CFB34
:1045F000002001F099FB002001F096FB002001F063
:104600009FFBAA2001F090FBCF2001F099FB002036
:1046100001F08AFB002001F087FB002001F084FB01
:10462000002001F081FB002001F07EFB002001F062
:104630007BFB002001F078FB002001F075FB0020DF
:1046400001F072FB002001F06FFB002001F06CFB19
:10465000002001F069FB002001F066FB002001F062
:1046600063FB002001F060FB002001F05DFB0020F7
:1046700001F05AFBF02001F063FB002001F054FB35
:10468000502001F051FB002001F04EFB002001F012
:104690004BFB002001F048FBF32001F051FB002010
:1046A00001F042FBF92001F04BFB062001F03CFB3E
:1046B000102001F039FB292001F036FB002001F029
:1046C00033FB3A2001F03CFB552001F02DFB11207B
:1046D00001F036FB642005F017F8292001F030FBCB
:1046E000352001F02DFB002001F01EFB512001F0D0
:1046F00027FBFF2001F018FB532001F021FB2C20A9
:1047000001F012FB552001F01BFB822001F00CFB95
:104710002C20FDE3A0427DD14FF470435521184673
:1047200001F024FB4FF20107AA21384601F01EFBDD
:104730005221781C01F01AFB0821B81C01F016FB6D
:104740000121F81C01F012FB0D214FF4304001F063
:104750000DFB0D214BF2010001F008FB0D214BF286
:10476000020001F003FB34214FF4364001F0FEFA61
:1047700034214BF2016001F0F9FA34214BF202606E
:1047800001F0F4FA0D214FF4314001F0EFFA0D2160
:104790004BF2011001F0EAFA0D214BF2021001F088
:1047A000E5FA34214FF4374001F0E0FA34214BF2BE
:1047B000017001F0DBFA34214BF2027001F0D6FAFD
:1047C00000214FF4324001F0D1FA00214BF20120D8
:1047D00001F0CCFA00214BF2022001F0C7FA2421AB
:1047E0004FF4384001F0C2FA24214BF6010001F0E9
:1047F000BDFA24214BF6020001F0B8FA01214FF472
:104800003F4001F0B3FA0F214FF4334001F0AEFA0C
:104810000F2100E0FEE34BF2013001F0A7FA0F2177
:104820004BF2023001F0A2FA34214FF4394001F08A
:104830009DFA34214BF6011001F098FA34214BF621
:10484000021001F093FA08214FF4354001F08EFA7E
:1048500008214BF2015001F089FA08214BF2025075
:1048600001F084FA03214FF4424001F07FFA242141
:104870004FF43A4001F07AFA24214BF6012001F07E
:1048800075FA24214BF6022001F070FA00214FF452
:104890003C4001F06BFA78214BF6014001F066FADA
:1048A00000214BF6024001F061FA00214FF43D4037
:1048B00001F05CFA78214BF6015001F057FA002123
:1048C0004BF6025001F052FA00214FF43E4001F045
:1048D0004DFA64214BF6016001F048FA00214FF4D3
:1048E000514001F043FA33214DF2011001F03EFA3C
:1048F00000214DF2021001F039FA34214DF203107B
:1049000001F034FA00214DF2041001F02FFA3A219F
:104910004DF2051001F02AFA00214DF2061001F0C7
:1049200025FA4A214DF2071001F020FA00214DF23C
:10493000081001F01BFA5C214DF2091001F016FA83
:1049400000214DF20A1001F011FA81214DF20B10F5
:1049500001F00CFA00214DF20C1001F007FAA6212B
:104960004DF20D1001F002FA00214DF20E1001F08F
:10497000FDF9E5214DF20F1001F0F8F901214DF29A
:10498000101001F0F3F913214DF2111001F0EEF9BE
:1049900001214DF2121001F0E9F954214DF21310EA
:1049A00001F0E4F901214DF2141001F0DFF9822148
:1049B0004DF2151001F0DAF901214DF2161001F057
:1049C000D5F9CA214DF2171001F0D0F902214DF2AC
:1049D000181001F0CBF900214DF2191001F0C6F9C1
:1049E00002214DF21A1001F0C1F901214DF21B1004
:1049F00001F0BCF902214DF21C1001F0B7F934218D
:104A00004DF21D1001F0B2F902214DF21E1001F01D
:104A1000ADF967214DF21F1001F0A8F902214DF206
:104A2000201001F0A3F984214DF2211001F09EF92C
:104A300002214DF2221001F099F9A4214DF2231028
:104A400001F094F902214DF2241001F08FF9B72101
:104A50004DF2251001F08AF902214DF2261001F0E5
:104A600085F9CF214DF2271001F080F902214DF296
:104A7000281001F07BF9DE214DF2291001F076F9C2
:104A800002214DF22A1001F071F9F2214DF22B10A2
:104A900001F06CF902214DF22C1001F067F9FE21B2
:104AA0004DF22D1001F062F903214DF22E1001F0AC
:104AB0005DF910214DF22F1001F058F903214DF24C
:104AC000301001F053F933214DF2311001F04EF95D
:104AD00003214DF2321001F049F96D214DF23310EE
:104AE00001F044F900214FF4524001F03FF9332125
:104AF0004DF2012001F03AF900214DF2022001F0BF
:104B000035F934214DF2032001F030F900214DF246
:104B1000042001F02BF93A214DF2052001F026F98D
:104B200000214DF2062001F021F94A214DF2072023
:104B300001F01CF900214DF2082001F017F95C2169
:104B40004DF2092001F012F900214DF20A2001F086
:104B50000DF981214DF20B2001F008F900214DF2F1
:104B60000C2001F003F9A6214DF20D2001F0FEF812
:104B700000214DF20E2001F0F9F8E5214DF20F2051
:104B800001F0F4F801214DF2102001F0EFF81321AB
:104B90004DF2112001F0EAF801214DF2122001F04E
:104BA000E5F854214DF2132001F0E0F801214DF217
:104BB000142001F0DBF882214DF2152001F0D6F827
:104BC00001214DF2162001F0D1F8CA214DF2172033
:104BD00001F0CCF802214DF2182001F0C7F80021B5
:104BE0004DF2192001F0C2F802214DF21A2001F015
:104BF000BDF801214DF21B2001F0B8F802214DF261
:104C00001C2001F0B3F834214DF21D2001F0AEF864
:104C100002214DF21E2001F0A9F867214DF21F205C
:104C200001F0A4F802214DF2202001F09FF8842128
:104C30004DF2212001F09AF802214DF2222001F0DC
:104C400095F8A4214DF2232001F090F802214DF2B5
:104C5000242001F08BF8B7214DF2252001F086F8D1
:104C600002214DF2262001F081F8CF214DF22720BC
:104C700001F07CF802214DF2282001F077F8DE21C6
:104C80004DF2292001F072F802214DF22A2001F0A4
:104C90006DF8F2214DF22B2001F068F802214DF25F
:104CA0002C2001F063F8FE214DF22D2001F05EF87A
:104CB00003214DF22E2001F059F810214DF22F2042
:104CC00001F054F803214DF2302001F04FF8332168
:104CD0004DF2312001F04AF803214DF2322001F06B
:104CE00045F86D214DF2332001F040F800214FF4DA
:104CF000534001F03BF833214DF2013001F036F81A
:104D000000214DF2023001F031F834214DF2033030
:104D100001F02CF800214DF2043001F027F83A217F
:104D20004DF2053001F022F800214DF2063001F07D
:104D30001DF84A214DF2073001F018F800214DF21C
:104D4000083001F013F85C214DF2093001F00EF843
:104D500000214DF20A3001F009F881214DF20B30AB
:104D600001F004F800214DF20C3000F0FFFFA62105
:104D70004DF20D3000F0FAFF00214DF20E3000F040
:104D8000F5FFE5214DF20F3000F0F0FF01214DF26B
:104D9000103000F0EBFF13214DF2113000F0E6FF70
:104DA00001214DF2123000F0E1FF54214DF2133099
:104DB00000F0DCFF01214DF2143000F0D7FF82211A
:104DC0004DF2153000F0D2FF01214DF2163000F007
:104DD000CDFFCA214DF2173000F0C8FF02214DF27D
:104DE000183000F0C3FF00214DF2193000F0BEFF73
:104DF00002214DF21A3000F0B9FF01214DF21B30B3
:104E000000F0B4FF02214DF21C3000F0AFFF34215E
:104E10004DF21D3000F0AAFF02214DF21E3000F0CD
:104E2000A5FF67214DF21F3000F0A0FF02214DF2D7
:104E3000203000F09BFF84214DF2213000F096FFDE
:104E400002214DF2223000F091FFA4214DF22330D7
:104E500000F08CFF02214DF2243000F087FFB721D3
:104E60004DF2253000F082FF02214DF2263000F095
:104E70007DFFCF214DF2273000F078FF02214DF267
:104E8000283000F073FFDE214DF2293000F06EFF74
:104E900002214DF22A3000F069FFF2214DF22B3051
:104EA00000F064FF02214DF22C3000F05FFFFE2184
:104EB0004DF22D3000F05AFF03214DF22E3000F05C
:104EC00055FF10214DF22F3000F050FF03214DF21D
:104ED000303000F04BFF33214DF2313000F046FF0F
:104EE00003214DF2323000F041FF6D214DF233309D
:104EF00000F03CFF00214FF4544000F037FF332115
:104F00004DF2014000F032FF00214DF2024000E07E
:104F10007CE300F02BFF34214DF2034000F026FF2C
:104F200000214DF2044000F021FF3A214DF20540EE
:104F300000F01CFF00214DF2064000F017FF4A214F
:104F40004DF2074000F012FF00214DF2084000F042
:104F50000DFF5C214DF2094000F008FF00214DF2E9
:104F60000A4000F003FF81214DF20B4000F0FEFEED
:104F700000214DF20C4000F0F9FEA6214DF20D404B
:104F800000F0F4FE00214DF20E4000F0EFFEE521AE
:104F90004DF20F4000F0EAFE01214DF2104000F00A
:104FA000E5FE13214DF2114000F0E0FE01214DF22B
:104FB000124000F0DBFE54214DF2134000F0D6FE0B
:104FC00001214DF2144000F0D1FE82214DF2154036
:104FD00000F0CCFE01214DF2164000F0C7FECA21C0
:104FE0004DF2174000F0C2FE02214DF2184000F0D1
:104FF000BDFE00214DF2194000F0B8FE02214DF235
:105000001A4000F0B3FE01214DF21B4000F0AEFE4D
:10501000022100E0FDE24DF21C4000F0A7FE342129
:105020004DF21D4000F0A2FE02214DF21E4000F0A4
:105030009DFE67214DF21F4000F098FE02214DF2C7
:10504000204000F093FE84214DF2214000F08EFEBE
:1050500002214DF2224000F089FEA4214DF22340AE
:1050600000F084FE02214DF2244000F07FFEB721C3
:105070004DF2254000F07AFE02214DF2264000F06C
:1050800075FECF214DF2274000F070FE02214DF257
:10509000284000F06BFEDE214DF2294000F066FE54
:1050A00002214DF22A4000F061FEF2214DF22B4028
:1050B00000F05CFE02214DF22C4000F057FEFE2174
:1050C0004DF22D4000F052FE03214DF22E4000F033
:1050D0004DFE10214DF22F4000F048FE03214DF20D
:1050E000304000F043FE33214DF2314000F03EFEEF
:1050F00003214DF2324000F039FE6D214DF2334074
:1051000000F034FE00214FF4554000F02FFE332113
:105110004DF2015000F02AFE00214DF2025000F045
:1051200025FE34214DF2035000F020FE00214DF207
:10513000045000F01BFE3A214DF2055000F016FE1F
:1051400000214DF2065000F011FE4A214DF20750A9
:1051500000F00CFE00214DF2085000F007FE5C212B
:105160004DF2095000F002FE00214DF20A5000F00D
:10517000FDFD81214DF20B5000F0F8FD00214DF2B4
:105180000C5000F0F3FDA6214DF20D5000F0EEFDA5
:1051900000214DF20E5000F0E9FDE5214DF20F50D7
:1051A00000F0E4FD01214DF2105000F0DFFD13216D
:1051B0004DF2115000F0DAFD01214DF2125000F0D5
:1051C000D5FD54214DF2135000F0D0FD01214DF2D8
:1051D000145000F0CBFD82214DF2155000F0C6FDB9
:1051E00001214DF2165000F0C1FDCA214DF21750B9
:1051F00000F0BCFD02214DF2185000F0B7FD002177
:105200004DF2195000F0B2FD02214DF21A5000F09B
:10521000ADFD01214DF21B5000F0A8FD02214DF221
:105220001C5000F0A3FD34214DF21D5000F09EFDF6
:1052300002214DF21E5000F099FD67214DF21F50E2
:1052400000F094FD02214DF2205000F08FFD8421EA
:105250004DF2215000F08AFD02214DF2225000F063
:1052600085FDA4214DF2235000F080FD02214DF276
:10527000245000F07BFDB7214DF2255000F076FD63
:1052800002214DF2265000F071FDCF214DF2275042
:1052900000F06CFD02214DF2285000F067FDDE2188
:1052A0004DF2295000F062FD02214DF22A5000F02B
:1052B0005DFDF2214DF22B5000F058FD02214DF220
:1052C0002C5000F053FDFE214DF22D5000F04EFD0C
:1052D00003214DF22E5000F049FD10214DF22F50C8
:1052E00000F044FD03214DF2305000F03FFD33212A
:1052F0004DF2315000F03AFD03214DF2325000F0F2
:1053000035FD6D214DF2335000F030FD00214FF49A
:10531000564000F02BFD33214DF2016000F026FDD8
:1053200000214DF2026000F021FD34214DF20360B6
:1053300000F01CFD00214DF2046000F017FD3A2141
:105340004DF2056000F012FD00214DF2066000F004
:105350000DFD4A214DF2076000F008FD00214DF2DD
:10536000086000F003FD5C214DF2096000F0FEFCD6
:1053700000214DF20A6000F0F9FC81214DF20B6032
:1053800000F0F4FC00214DF20C6000F0EFFCA621CF
:105390004DF20D6000F0EAFC00214DF20E6000F0CD
:1053A000E5FCE5214DF20F6000F0E0FC01214DF23B
:1053B000106000F0DBFC13214DF2116000F0D6FC10
:1053C00001214DF2126000F0D1FC54214DF2136026
:1053D00000F0CCFC01214DF2146000F0C7FC8221EA
:1053E0004DF2156000F0C2FC01214DF2166000F094
:1053F000BDFCCA214DF2176000F0B8FC02214DF24D
:10540000186000F0B3FC00214DF2196000F0AEFC12
:1054100002214DF21A6000F0A9FC01214DF21B603F
:1054200000F0A4FC02214DF21C6000F09FFC34212E
:105430004DF21D6000F09AFC02214DF21E6000F05A
:1054400095FC67214DF21F6000F090FC02214DF2A7
:10545000206000F08BFC84214DF2216000F086FC7E
:1054600002214DF2226000F081FCA4214DF2236064
:1054700000F07CFC02214DF2246000F077FCB721A3
:105480004DF2256000F072FC02214DF2266000F022
:105490006DFCCF214DF2276000F068FC02214DF237
:1054A000286000F063FCDE214DF2296000F05EFC14
:1054B00002214DF22A6000F059FCF2214DF22B60DE
:1054C00000F054FC02214DF22C6000F04FFCFE2154
:1054D0004DF22D6000F04AFC03214DF22E6000F0E9
:1054E00045FC10214DF22F6000F040FC03214DF2ED
:1054F000306000F03BFC33214DF2316000F036FCAF
:1055000003214DF2326000F031FC6D214DF2336029
:1055100000F02CFC5521184600F028FCAA21384642
:1055200000F024FC5221781C00F020FC0821B81C5B
:1055300000F01CFC0021F81C00F018FCCC214FF4FA
:10554000314000F013FC00214BF2011000F00EFC82
:1055500005214FF4364000F009FC70214FF437402C
:1055600000F004FC70214BF2017000F0FFFB012100
:105570004FF4384000F0FAFB03214BF6010000F035
:10558000F5FB03214BF6020000F0F0FB03214BF684
:10559000030000F0EBFB02214FF43C4000F0E6FB7F
:1055A00000214BF6014000F0E1FB00214BF60240E8
:1055B00000F0DCFBD0214FF4494000F0D7FB022182
:1055C0004CF6011000F0D2FB50214CF6021000F016
:1055D000CDFB50214CF6031000F0C8FB50214CF6D7
:1055E000041000F0C3FB00214FF4545000F0BEFB48
:1055F00055214FF4685000F0B9FB4FF4885000F08B
:105600009FFB782004F0A2F84FF4245000F098FBA0
:10561000B9E04045FCD1E22000F092FB1D2000F0F3
:1056200083FB022000F080FB042000F07DFB64205F
:1056300004F08CF8E02000F083FB012000F074FB04
:105640000A2004F061F8E02000F07AFB032000F06B
:105650006BFB0C2004F058F8012000F071FB0A20CD
:1056600004F052F8E62000F06BFB2F2000F05CFB0A
:10567000FF2000F059FBFF2000F056FBB02000F0A7
:105680005FFB202000F050FB002000F04DFB0320CA
:1056900000F04AFB40F21F3000F046FB012000F012
:1056A00043FB40F2DF1000F03FFB002000F03CFB2A
:1056B000B42000F045FB042000F036FB40F21F4010
:1056C00000F032FB002000F02FFB2E2000F02CFB1E
:1056D000002000F029FB002000F026FB002000F055
:1056E00023FB002000F020FBB62000F029FB022065
:1056F00000F01AFB4FF4037000F016FB002000F0DE
:1057000013FB172000F010FB152000F00DFB00200C
:1057100000F00AFB002000F007FBF02000F010FB77
:10572000032000F001FB292000F00AFBD02000F04C
:1057300007FB002000F0F8FABE2000F001FB052076
:1057400000F0F2FAFE2000F0EFFA012000F0ECFA8F
:10575000002000F0E9FA002000F0E6FA002000F056
:10576000E3FAB82000F0ECFA032000F0DDFA0120A3
:1057700000F0DAFABA2000F0E3FA012000F0D4FADF
:10578000642000F035F8A888584505D0B04203D011
:10579000A04201D0404509D1042002900490D9E9EB
:1057A000010202A9D9F83030FBF7AAFA0020FDF770
:1057B00063FC0549C1F894A24FF6FF70FDF738FC71
:1057C00015B0BDE8F08F0000008040420346012084
:1057D00000E05843491EC9B2FBD27047034808B5E0
:1057E0000088ADF80000BDF8000008BD00000860AA
:1057F00010B50246BE2000F0A3FA052000F094FA8E
:10580000104604F0BCFE9FED0C1B53EC112B04F072
:1058100005FF04F087FE80B200F086FA012000F058
:1058200083FAFF2000F080FA002000F07DFABDE846
:105830001040002000F078BA66666666666604402E
:10584000F0B56C4D00232946AA79898841F6631486
:10585000012A01D01AB11BE0A14202D118E0A142F5
:1058600016D1082814D2DFE800F00406080A0C0E4E
:10587000101206200CE007200AE0042008E00520B2
:1058800006E0012004E0002002E0032000E0022006
:10589000A1F5134745F2103245F21056413F05D0AD
:1058A000914203D0B14201D0A14277D1082812D24F
:1058B000DFE800F0110406080A0C0E1080230AE04D
:1058C000402308E0C02306E0202304E0602302E038
:1058D000A02300E0E023B14202D14FF4585000E091
:1058E0003620914205D0B14203D0A14201D043F00D
:1058F0000803194600F03AFAAA88A2420AD098068C
:105900002888698802D5884202D303E0884201D9F9
:10591000298068806889B24241D100F011FA0020E4
:1059200000F002FA6889401C80B200F009FA0020F9
:1059300000F0FAF96889801C80B200F001FA28882A
:10594000401EC0F30F2000F0EFF96889C01C80B240
:1059500000F0F6F92878401EC0B200F0E5F9A889F9
:1059600000F0EEF9002000F0DFF9A889401C80B2B9
:1059700000F0E6F9002000F0D7F9A889801C80B279
:1059800000F0DEF96888401EC0F30F2000F0CCF96B
:10599000A889C01C80B200F0D3F922E028E000F012
:1059A000CFF9002000F0C0F9002000F0BDF92888F0
:1059B000401EC0F30F2000F0B7F92878401EC0B297
:1059C00000F0B2F9A88900F0BBF9002000F0ACF9B2
:1059D000002000F0A9F96888401EC0F30F2000F0F5
:1059E000A3F9A878BDE8F040401EC0B200F09CB911
:1059F000F0BD0000B8140020F0B53F4D0C46024643
:105A0000060AA9882846270A4089A1F51343413B85
:105A100028D0A1F5A643103B24D0A1F5C853633B81
:105A20002FD0A1F5AA43103B64D100F089F930468C
:105A300000F07AF96889401C80B200F081F9D0B298
:105A400000F072F9A88900F07BF9384600F06CF993
:105A5000A889401C80B200F073F9E0B2BDE8F040C4
:105A600000F062B900F06CF9304600F05DF9D0B298
:105A700000F05AF9A88900F063F9384600F054F9AB
:105A8000EBE7A97929B300F05BF9304600F04CF957
:105A9000D0B200F049F92888401EC0F30F2000F072
:105AA00043F92878401EC0B200F03EF9A88900F002
:105AB00047F9384600F038F9E0B200F035F9688867
:105AC000401EC0F30F2000F02FF9A878401EC0B28E
:105AD000C4E72988891A491E8AB200F031F90020EA
