:020000040800F2
:10000000F82000204D020008AB1400089B100008E7
:10001000A914000811040008A5270008000000002A
:100020000000000000000000000000001F23000886
:1000300013040008000000002B030008A52300089B
:10004000870200088702000887020008870200086C
:10005000870200088702000887020008870200085C
:10006000870200088702000887020008870200084C
:10007000870200088702000887020008870200083C
:10008000870200088702000887020008870200082C
:10009000870200088702000887020008870200081C
:1000A000870200088702000887020008870200080C
:1000B00087020008870200088702000887020008FC
:1000C00087020008870200088702000887020008EC
:1000D000870200083127000887020008870200080D
:1000E00087020008870200088702000887020008CC
:1000F00087020008870200088702000887020008BC
:1001000087020008870200088702000887020008AB
:10011000870200088702000887020008870200089B
:10012000870200088702000887020008870200088B
:10013000870200088702000887020008870200087B
:10014000870200088702000887020008870200086B
:10015000870200088702000887020008870200085B
:10016000870200088702000887020008870200084B
:1001700087020008870200088702000800000000CC
:10018000870200088702000887020008870200082B
:10019000870200088702000887020008870200081B
:1001A00087020008870200088702000800F002F8B2
:1001B00000F03CF80AA090E8000C82448344AAF1C5
:1001C0000107DA4501D100F031F8AFF2090EBAE8C3
:1001D0000F0013F0010F18BFFB1A43F0010318477B
:1001E0009C290000BC290000103A24BF78C878C1BF
:1001F000FAD8520724BF30C830C144BF04680C602D
:10020000704700000023002400250026103A28BF74
:1002100078C1FBD8520728BF30C148BF0B60704778
:100220001FB502F01DFC1FBD10B510BD00F0B5F8E4
:100230001146FFF7F5FF02F081FB00F0D3F803B49D
:10024000FFF7F2FF03BC02F0AEFA0000114880474E
:10025000DFF84400016841F470010160BFF34F8F83
:10026000DFF83800016821F040410160BFF36F8F73
:100270000B480047FEE7FEE7FEE7FEE7FEE7FEE786
:10028000FEE7FEE7FEE7FEE706480749074A084B98
:1002900070470000C923000888ED00E034EF00E05B
:1002A000AD010008F81A0020F8200020F81C0020FA
:1002B000F81C0020EFF3098141B1F1EE101A40F86B
:1002C000041D20ED200A29490A6810607047B0EC2F
:1002D000200A02C8E1EE101A25490A68106070472A
:1002E000EFF3108072B6704780F310887047214892
:1002F0004FF6FF710170002080F309881E480168E5
:1003000081F308881D48012101701D484FF080517C
:10031000016062B6FEE71A484FF0805101607047F5
:1003200017484FF080510160704772B6EFF30980B3
:1003300028B1203880E8F00F0C490968086000B542
:10034000104880475DF804EB0F4810490A780270A6
:10035000064807490A680260106890E8F00F2030EC
:1003600080F309884EF0F40E62B670474400002016
:100370004C00002022ED00E0680000202B0000204F
:1003800004ED00E0D91C000828000020290000200E
:1003900070477047704770477047754600F02CF8FB
:1003A000AE4605006946534620F00700854618B062
:1003B00020B5FFF769FFBDE820404FF000064FF081
:1003C00000074FF000084FF0000B21F00701AC468A
:1003D000ACE8C009ACE8C009ACE8C009ACE8C009A9
:1003E0008D46704710B50446AFF300802046BDE847
:1003F0001040FFF724BF000000487047941A002007
:100400007047704770477047704770477047704734
:10041000FEE770472DE9F84FDFF8A091002209F1BF
:10042000040A0AF1040B4FF00F080BF1040E012629
:100430000B6896403340B34271D14C68022C01D016
:10044000122C11D1D40800EB84073D6A5407E40E46
:1004500008FA04FC25EA0C05D1F810C00CFA04FCDB
:100460004CEA050CC7F820C007685400032591F832
:1004700004C0A5400CF0030CAF430CFA04FC4CEA9A
:10048000070CC0F800C04F68012F05D0022F03D021
:10049000112F01D0122F11D18768D1F80CC0AF43B2
:1004A0000CFA04FC4CEA070CC0F808C04768B743D4
:1004B0000E79C6F3001696403E434660C668AE43CA
:1004C0008D68A5403543C5604C68E4006FD53C4C51
:1004D000256845F480452560246822F0030504F46E
:1004E00080440094374C2E19D6F808789407250FCD
:1004F00008FA05F4A743344CA04201D100242EE0B1
:10050000324CA04201D1012429E0314CA04201D15A
:10051000022424E02F4CA04202D103241FE046E035
:100520002D4CA04201D1042419E02C4CA04201D151
:10053000052414E02A4CA04201D106240FE0294CE6
:10054000A04201D107240AE0274CA04201D108248F
:1005500005E0264CA04201D1092400E00A24AC4069
:100560003C43C6F80848D9F800404D464E689C43C5
:10057000F60300D51C432C60DAF8004055464E685F
:100580009C43B60300D51C432C60DBF800405D465D
:100590004E689C43F60200D51C432C60DEF80040F8
:1005A00075464E689C43B60200D51C432C60521C15
:1005B000102AFFF43CAFBDE8F88F0000003C01407A
:1005C0004438024000300140000002400004024074
:1005D00000080240000C02400010024000140240DB
:1005E00000180240001C024000200240002402408B
:1005F0000069084000D0012070470AB1816170474E
:100600000904FBE70148006870470000140000205F
:1006100002480168491C0160704700001400002076
:100620000B4810B5016841F400710160016841F4A4
:1006300080610160016841F480710160052000F073
:1006400049F80F2000F006F800F015F8002010BD62
:10065000003C024010B5044600F096F94FF47A7160
:10066000B0FBF1F000F0AAFB00222146501E00F082
:1006700011F8002010BD08B50020009008BD00F062
:100680001F02012191404009800000F1E020C0F8E4
:1006900000117047F0B40E4B1B68C3F30223C3F183
:1006A0000704042C00D904241D1D072D01D20023AA
:1006B00000E0DB1E012606FA04F56D1E0D409D408C
:1006C0009E40761E164045EA0601F0BC00F0EEBEE4
:1006D0000CED00E0064A00F0070110684FF6FF033A
:1006E000184040EA012003490843106070470000A9
:1006F0000CED00E00000FA052DE9F8431D48016803
:1007000041F0805101600068012700F080500090A6
:10071000380490FAA0F0DFF86080B0FA80F048F872
:100720002070FFF76FFF04464FF47A75134E04E014
:10073000FFF768FF001BA84213D87068C003F7D505
:100740004FF4003090FAA0F0B0FA80F048F8207032
:10075000FFF758FF044607E0FFF754FF001BA842CD
:1007600002D90320BDE8F88370688003F4D5002027
:10077000F8E700004038024000000E4200700040E0
:100780002DE9F05FDFF8F8A104460F46DAF8000023
:10079000DFF8F08100F00F02C8B27A49814641F2D9
:1007A000883608F10808BA4261D202468AF8002069
:1007B000DAF8000000F00F00B8427DD12078800701
:1007C00007D5D8F80020A36822F0F0021A43C8F831
:1007D00000202078C0072DD0606801281AD0022898
:1007E0001BD0032819D009688907002964DAD8F8D2
:1007F0000010474621F003010143C8F80010FFF73D
:1008000001FF0546606801280FD0022818D0032890
:100810001CD027E009688903E7E709688901E4E754
:10082000FFF7F0FE401BB04258D83868C0F3810093
:100830000128F5D188E0FFF7E5FE401BB0424DD816
:100840003868C0F381000228F5D17DE03868FFF7F1
:10085000D9FE401BB042F9D940E0FFF7D3FE401B60
:10086000B0423BD8386810F00C0FF6D16CE020781D
:10087000800707D5D8F80020A36822F0F0021A43B9
:10088000C8F800202078C0074CD06068012828D024
:10089000022829D0032827D009688907002949DAC6
:1008A000D8F8002022F003020243C8F80020FFF726
:1008B000A9FE0546606800E03CE001281DD0022842
:1008C00029D0032838D0B3464646306810F00C0FC4
:1008D00028D0FFF797FE411B5945F6D90320BDE804
:1008E000F09F09688903D9E709688901D6E7FFF70E
:1008F00089FE411B594502D9F0E7B34646463068A8
:10090000C0F381000128F2D10CE0FFF77BFE411B10
:10091000594502D9E2E7B34646463068C0F3810044
:100920000228F2D18AF80090DAF8000000F00F00F7
:10093000B84209D00120D2E744462068FFF762FEA2
:10094000401BB042F9D9C9E72078400707D5D8F84D
:100950000010E26821F4E0511143C8F8001020783B
:10096000000708D5D8F80010226921F4604141EA57
:10097000C201C8F800100F20FFF76CFE0020AEE7A0
:10098000003C02400038024010B500F043F808492E
:100990000968F02292FAA2F201F0F001B2FA82F2B2
:1009A000D140044A515CC8400349086010BD0000B2
:1009B000083802406A2A00080000002010B5FFF73E
:1009C000E3FF074909684FF4E05292FAA2F201F4FA
:1009D000E051B2FA82F2D140024A515CC84010BDE7
:1009E000083802406A2A000810B5FFF7CDFF074912
:1009F00009684FF4604292FAA2F201F46041B2FA3F
:100A000082F2D140024A515CC84010BD0838024011
:100A10006A2A000830B51948006810F00C0118481F
:100A200012D0184C04290ED008290DD1134A121FD8
:100A30001168136801F03F015D0247F6C07304D5E9
:100A4000B4FBF1F003E0204630BDB0FBF1F01168DB
:100A5000194093FAA3F3B3FA83F3D94048431168DA
:100A60004FF4403292FAA2F201F44031B2FA82F22B
:100A7000D140491C4900B0FBF1F030BD08380240BC
:100A80000024F40040787D012DE9F84F04460078F9
:100A9000DFF8FCA2BF4DC0074FF0000648D0DAF8DF
:100AA00000105046C1F38101012908D00068C0F34D
:100AB000810002280AD1281D0068400206D5286856
:100AC000800335D56068002873D031E0DFF8C49228
:100AD00009F1020989F80060FFF794FD074641F229
:100AE000883804E0FFF78EFDC11B41457AD828689D
:100AF0008003F7D4207989F80000606860B1FFF7BF
:100B000081FD074604E0FFF77DFDC11B4145EDD89F
:100B100028688003F7D50BE0FFF774FD074604E073
:100B2000FFF770FDC11B4145E0D828688003F7D46A
:100B30002078DFF86492800744D5DAF80010504638
:100B400011F00C0F4FF0F80809D00068C0F38100D5
:100B500002280BD18E48001F0068400206D4286886
:100B6000800714D5E068012823D110E0E068D0B1F7
:100B70000120C9F80000FFF745FD074604E0FFF734
:100B800041FDC01B6428B1D828688007F7D52868C4
:100B900098FAA8F22169B2FA82F220F0F8009140A6
:100BA000084328600EE0C9F80060FFF72BFD0746F8
:100BB00005E0EAE0FFF726FDC01B642812D828688C
:100BC0008007F7D42078000725D5DFF8C481734863
:100BD000616908F16C0881B101210160FFF712FD24
:100BE000074605E07EE0FFF70DFDC01B642879D8BD
:100BF000D8F800008007F6D50DE00660FFF702FD8B
:100C0000074604E0FFF7FEFCC01B64286AD8D8F84A
:100C100000008007F6D42078400753D55C48383070
:100C2000016841F0805101600068DFF8748100F0D4
:100C300080500090D8F8001041F48071C8F800107E
:100C4000FFF7E0FC074604E0FFF7DCFCC01B64286C
:100C500048D8D8F80000C005F6D5DFF834B10BF15C
:100C6000680B8BF80060FFF7CDFC074641F288382F
:100C700004E0FFF7C7FCC11B41457ED8DBF800004C
:100C80008007F6D4207A8BF80000A06868B1FFF7DF
:100C9000B9FC074604E0FFF7B5FCC11B41456CD821
:100CA000DBF800008007F6D50CE0FFF7ABFC074649
:100CB00004E0FFF7A7FCC11B41455ED8DBF800004C
:100CC0008007F6D4A069E8B3DAF80010C1F3810117
:100CD00002295AD0022806D0C9F86060FFF792FCBA
:100CE00004464DE049E04F46C9F86060FFF78AFCD2
:100CF000064604E0FFF786FC801B64283DD8286880
:100D00008001F7D4D4E90701084347F6C07191FA8E
:100D1000A1F1626AB1FA81F18A40A16A4FF0FF3312
:100D200003EB51014FF4403393FAA3F3B3FA83F387
:100D300099400A4310434FF0706292FAA2F2B2FA5D
:100D400082F200E01FE0E16A914008431049091F68
:100D5000086001203866FFF755FC044604E0FFF701
:100D600051FC001B642808D828688001F7D50AE0E8
:100D7000FFF748FC001B642802D90320BDE8F88F68
:100D800028688001F4D40020F8E70120F6E700008D
:100D9000083802400038024000004742800E4742B7
:100DA000007000404FF0E0210428086903D020F0D3
:100DB00004000861704740F00400FAE710B5401ED7
:100DC000B0F1807F01D3012010BD4FF0E0246061BD
:100DD0000F21601700F06AFB0020A061072020614E
:100DE000002010BD704738B5016804460868CA681D
:100DF000C0F3000002F4807238B132B1086848686C
:100E00000090E06B40F00100E06308684A69C0F3BD
:100E1000400002F0010238B132B108684868009021
:100E2000E06B40F00400E06308684A69C0F38000AA
:100E300002F0010238B132B1086848680090E06BF6
:100E400040F00200E06308684A69C0F3C00002F0A5
:100E5000010238B132B1086848680090E06B40F098
:100E60000800E0630868C968C0F3401001F0200181
:100E700018B111B1204601F0D1FA20680168C068AC
:100E8000C1F3C01100F0800019B110B1204601F08B
:100E9000D3FB21680868CA68C0F3801002F04002E2
:100EA000012568B162B1CA68204622F04002CA60DA
:100EB00094F8391032290CD080F8395000F0ECF851
:100EC000E06B002804D084F839502046FFF78AFFF1
:100ED00038BD222180F83910F0E770B5040004D045
:100EE00094F83900002510B106E0012070BD84F8A7
:100EF0003850204600F020F8022084F8390020689D
:100F0000C16821F40051C160204601F0DBFA20687D
:100F1000016921F4904101612068416921F02A01B1
:100F200041612068C16841F40051C160E56301205E
:100F300084F83900002070BD30B5044600682049AF
:100F400087B0884239D11F48016841F00101016032
:100F5000006800F0010005901A481430016841F063
:100F6000100101600068012100F0100005904FF4AD
:100F7000007000900220CDE9010103900720124D7E
:100F8000049069462846FFF745FA281500906946FF
:100F90002846FFF73FFA2068C16821F04001C16090
:100FA0002068C16841F02001C1602520FFF767FB80
:100FB000032211462520FFF76DFB07B030BD00006E
:100FC0000010014030380240000002402DE9F04797
:100FD000044690F8390099460D46012801D01228A0
:100FE00057D125B31AB394F83800012851D00126FF
:100FF00084F838600027E76394F83900122819D084
:10100000222084F83900A285E2854FF48058E08DD3
:101010004B46401EE085A0684FF0000240454FF06F
:101020002001204616D101F03AFBB0B904E00120BE
:10103000BDE8F0873220E4E7206900282068406896
:1010400003D0C1B225F8011B12E0C0F3080125F856
:10105000021B0DE001F023FB08B10320E8E7206943
:1010600000282068406801D000F07F0005F8010BDF
:10107000E08D0028CBD194F83900322805D084F8CF
:10108000396084F838700020D2E7122084F83900E3
:10109000F7E70220CCE770477047FEE770B50D4CCC
:1010A0000025C4F890520C48016821F440610160A9
:1010B000016841F480610160C4F89452022004F593
:1010C000247401F0C9FB01202060022001F0C4FB60
:1010D000256070BD00804342001C02400E4810B5E0
:1010E000016886B041F0800101600068012400F0D1
:1010F000800005903020CDE900040220CDE90240B7
:1011000069460648FFF786F90548C0F89442C0F8DA
:10111000904206B010BD000030380240001C024072
:101120000080434270B50D4C0026C4F890620C4814
:10113000016821F440610160016841F4806101604F
:101140000125C4F89452022004F5247401F084FBB4
:101150002560022001F080FB266070BD00804342C4
:10116000001C02402DE9F047814616480024016822
:1011700021F44061016001680160134E2546274655
:101180004FF00108C6F89072022001F065FBC6F826
:1011900090826006040ED6F8140208B1641CE4B212
:1011A000012001F059FB6D1CEDB2082DEAD3B9F115
:1011B000000F04D0FFF772FF2046BDE8F087FFF76D
:1011C000B1FFF9E7001C0240008043422DE9F041E5
:1011D00005461448016821F440610160016841F44A
:1011E00080610160104E0027C6F890723C464FF0B7
:1011F0000108E809C6F894026806050E022001F00D
:101200002BFBC6F89082022001F026FBC6F89072F4
:10121000022001F021FB641CE4B2082CE9D3BDE8F4
:10122000F0810000001C02400080434270B50D4870
:10123000016821F440610160016841F4806101604E
:10124000094C0120C4F89402C4F89002042004F56B
:10125000247401F001FB00256560042001F0FCFA14
:10126000256070BD001C0240008043420E4810B54E
:10127000016821F440610160016841F4806101600E
:101280000A4C0020C4F89002C4F89402042004F52B
:10129000247401F0E1FA012020606060BDE8104094
:1012A000042001F0D9BA0000001C02400080434233
:1012B00070B512480024016821F4406101600168A2
:1012C00001600F4D0126C5F89462304601F0C4FA62
:1012D000C5F89062012001F0BFFA07E0641CE4B297
:1012E000FA2C03D9FFF7C2FF012070BDD5F8140214
:1012F0000028F3D1C5F8900270BD0000001C024028
:101300000080434270B51B4886B00025016841F05B
:1013100001010160016801F001010591016841F0DE
:1013200004010160016801F004010591016841F0C8
:10133000800101600068032400F080000590022015
:101340000126CDE90204CDE9006569460A48FFF7A8
:1013500061F8700303948DE8610069460748FFF760
:1013600059F80C20009069460548FFF753F806B07D
:1013700070BD00003038024000000240000802400A
:10138000001C02402DE9F0470126304C7703DFF8BE
:10139000C080DFF8C090304D01281DD02078A0B16A
:1013A00008212846FFF724F9C0B104212846FFF799
:1013B0001FF998B139464046FFF71AF970B101217B
:1013C0004846FFF715F9012808D008212846FFF7FD
:1013D0000FF9012826D037E02670E1E70A2001F056
:1013E00019FA0020207008212846FFF701F980B182
:1013F00004212846FFF7FCF870B139464046FFF754
:10140000F7F858B101214846FFF7F2F8012807D054
:101410001AE00120BDE8F0870220FBE70320F9E78E
:101420000420F7E704212846FFF7E2F801280BD152
:1014300039464046FFF7DCF8012805D1012148462E
:10144000FFF7D6F800B926700020E3E7220000205D
:101450000008024000000240001C0240104810B585
:10146000016886B041F0020101600068012100F0CE
:10147000020005900320CDE90210CDE90001094CDE
:1014800069462046FEF7C6FF012211462046FFF7B7
:10149000B4F8012202212046FFF7AFF806B010BDD4
:1014A0003038024000040240FEE770470907090E89
:1014B000002806DA00F00F0000F1E02080F8141D8B
:1014C000704700F1E02080F80014704770B586B0D6
:1014D00000F064F800F028FD224A002420469471B0
:1014E00002F134010C54401CC0B20828FAD3147124
:1014F00054719462146200F027FD00F0E9FC00F0E2
:10150000B3FC00F063FD80261748CDE901064FF6D5
:10151000FF70009003253F23144A00211448CDE9B1
:10152000034500F0F1F805AA12A13F2000F00EFAE1
:101530001448CDE901064FF6FE700B4A00903E2399
:10154000121F00211048CDE9034500F0DDF805AA7F
:101550000EA13E2000F0FAF906B0BDE8704000F0A0
:101560002FB8000024000020540D0020500F002050
:101570006D21000875432F4F532D49492049646C54
:1015800065000000540B0020A121000875432F4F77
:10159000532D49492053746174000000054880218F
:1015A000002204C0491EFCD10348044920F0070072
:1015B0000860704794180020941A002068000020EA
:1015C000704700000449C879012804D18878FF28B1
:1015D00001D2401C887070472400002070B5144C64
:1015E000E079012822D1FEF77BFEA178054621B1E2
:1015F000491E11F0FF00A07013D1E07888B900F007
:101600002BFD0C49607951F82010A162227990429B
:1016100007D0C86B401CC863E068401CE060FEF760
:101620007FFE2846BDE87040FEF75EBE70BD00003C
:1016300024000020540F002010B5094CE079012847
:101640000CD1FEF74DFEA17821B9E178FF2901D236
:10165000491CE170BDE81040FEF746BE10BD000019
:101660002400002010B50D4CE079012814D1FEF7BC
:1016700037FEA17831B9E17821B1491E11F0FF019F
:10168000E17003D0BDE81040FEF72EBEFEF72CFE41
:10169000BDE8104000F0BCBC10BD000024000020DC
:1016A00010B5094CE07900280CD100F0D5FC607928
:1016B0000649207151F82000A0622062BDE8104068
:1016C000FEF715BE10BD000024000020540F0020BE
:1016D00010B5022000F01AFBFEF702FE084C0021B4
:1016E000E161FEF701FE642000F010FBFEF7F8FD5B
:1016F000E169616101216170BDE81040FEF7F4BD50
:1017000024000020FEF77CBE2DE9FF4F83B01C466D
:10171000DDE91386DDE9119792468B46FEF7E0FD81
:101720001D49097829B1FEF7DFFD3C2007B0BDE86F
:10173000F08F1A4D55F8241019B1FEF7D5FD282069
:10174000F4E7012145F82410FEF7CEFD3246394674
:10175000484600F075FD334652465946039800F05E
:101760009DF90097CDE9018601464A462046109B27
:1017700000F082FC060008D0FEF7B2FD002145F81B
:101780002410FEF7B1FD3046D0E705480078012867
:10179000F9D100F03DFCF6E726000020540F0020B0
:1017A0002B000020FEF72DBE2DE9F04705464348EB
:1017B000007810B14020BDE8F0873F2D05D0FEF73E
:1017C0008FFD0646FF2D02D005E03E20F3E73C48A2
:1017D000006890F83650DFF8EC9059F825405CB17D
:1017E000012C0ED094F83810374A94F83930505CF8
:1017F000984350540AD00FE03046FEF775FD432061
:10180000D9E73046FEF770FD3D20D4E72F4894F825
:101810003A20017891430170E16911B1204600F04E
:10182000FCFA216A11B1204600F009FBA06A08B158
:1018300000F03EFB4FF00008C4F83080244F84F8DD
:10184000348084F835803878FF2801D2401C387005
:101850003046FEF749FD00F0DFFAFEF741FD06468F
:10186000387808B1401E3870204600F03DF819481D
:101870000178491E017049F82580A069414690B160
:1018800061694161D4E905018161134801686161C1
:10189000046012A020653046FEF726FD104800784F
:1018A000012806D007E0606981610E49606908601F
:1018B000EBE700F0ADFB00207DE7000026000020F4
:1018C00044000020540F0020580000202A0000206F
:1018D000270000202C000020480000203F000000CE
:1018E0002B00002050000020FEF78CBD10B50446F0
:1018F0003F2810D0FF2C10D0FEF7F2FC104951F811
:101900002410A1B1012916D03F2281F83B20FEF717
:10191000EBFC002010BD3E2010BDFEF7E1FC0949A4
:10192000096891F83B40FEF7DFFC204610BDFEF74A
:10193000DBFC432010BDFEF7D7FC3D2010BD0000AE
:10194000540F002044000020FEF75DBD70B5054631
:1019500010480E461446007810B11220107070BD69
:10196000FEF7BEFCFF2D03D10B49096891F83650F4
:101970000A4951F8252043253AB1012A05D01665B8
:10198000FEF7B2FC0020207070BDFEF7ADFC2570A4
:1019900070BD00002600002044000020540F0020ED
:1019A00010B50446FEF79CFC1C4951F8241069B19F
:1019B00001290FD091F8342013072BD502F0F7023C
:1019C00081F8342012F0370F08D009E0FEF78CFCC4
:1019D000462010BDFEF788FC432010BD0A6B1AB1EB
:1019E000FEF782FC002010BD0D4B91F83A201C78C8
:1019F00022431A7011F8382F0A4B49789C5C0C432B
:101A00009C54FEF771FC084800780128EAD100F0E8
:101A1000FFFAE7E7FEF768FC442010BD540F0020F2
:101A20002A000020580000202B000020FEF7ECBC0C
:101A3000FEF7EBBC2DE9F0410446002008600E469D
:101A40004860FEF74DFCFF2C03D11249096891F85C
:101A50003640114951F8241051B1012908D00A7CAF
:101A6000D2070AD0D1E902570024FEF73DFC09E075
:101A7000FEF73AFC4320BDE8F081FEF735FC452037
:101A8000F9E7641C01CD0028FBD0381BC6E90040F3
:101A90000020F0E744000020540F002010B5121D74
:101AA00022F007024FF0807442E902044C4842F8E9
:101AB0000C0C4FF0123042F8100D4FF0033042F88A
:101AC000040D4FF00234A2F10C00621016C04FF06A
:101AD000113140F8101C110140F8141C4FF009316D
:101AE00040F8181CD10040F81C1C4FF0073140F89A
:101AF000201C4FF0063140F8241C4FF0053140F80F
:101B0000281D910040F8041D590767D55106021F92
:101B10001160A0F10801334A0A60091F324A0A60C5
:101B2000091F324A0A60091F314A0A60091F314AF7
:101B30000A60091F304A0A60091F304A0A60091FFB
:101B40002F4A0A60091F2F4A0A60091F2E4A0A609D
:101B5000091F2E4A0A60091F2D4A0A60091F2D4AD3
:101B60000A60091F2C4A0A60091F2C4A0A60091FD3
:101B70004FF083420A60091F294A0A60091F294A57
:101B80000A60091F284A0A60091F284A0A60091FBB
:101B9000274A0A60091F274A0A60091F264A0A6065
:101BA000091F4FF082420A60091F244A0A60091F78
:101BB000234A0A60091F234A0A60091F4FF0814225
:101BC0000A60091F62050A60091F12020A60091FE4
:101BD0004FF07E520A60002140F8841D10BD0000C5
:101BE000892100080000F8410000F0410000E841B0
:101BF0000000E0410000D8410000D0410000C84191
:101C00000000C0410000B8410000B0410000A84100
:101C10000000A04100009841000090410000884170
:101C20000000704100006041000050410000404150
:101C30000000304100002041000010410000E04061
:101C40000000C0400000A04070B50446FEF748FB0D
:101C500001461D48FF2C006805D090F83600A042D0
:101C600004D1012503E090F83640FAE70025174833
:101C700050F8240058B101280ED090F83820144CA8
:101C800090F83960A35CB343A3540AD00FE0084630
:101C9000FEF72AFB482070BD0846FEF725FB4320CF
:101CA00070BD0C4A90F83A401378A343137010F8B3
:101CB000342F42F0080202700846FEF715FB0DB102
:101CC00000F0A6F9002070BD44000020540F002051
:101CD000580000202A0000200A4810B50068017C46
:101CE000490702D50068FEF7E5FA07480068017C5D
:101CF000490702D50068FEF7EAFABDE81040FEF792
:101D000085BB0000440000204C00002070B5044654
:101D100013480078002821D11248007800281DD1EE
:101D2000002C1BD0FEF7DCFA03460F480F4D01686C
:101D300091F8382091F83960A85CB043A85405D1D7
:101D40000B4891F83A500278AA43027018460C6387
:101D5000FEF7CAFABDE8704000F05AB970BD000045
:101D6000260000202700002044000020580000200A
:101D70002A0000202DE9F04100F04CF8FEF7B0FAFF
:101D8000234D296B491C2963FEF7AEFAE879012837
:101D90003BD1687A0126002720B1012835D00228DE
:101DA00002D06F72EC6A2CE06E72FBE7FEF798FAD5
:101DB000216B19B3491E216320D194F8341011F01E
:101DC000370F06D001F0C80184F8341084F835606C
:101DD00001E084F8357094F8341009070ED494F8B3
:101DE0003A10AA790A4B1143A97194F83810343388
:101DF00094F839C05A5C42EA0C025A546469FEF7FE
:101E000073FA94F836003F28D0D1BDE8F081000085
:101E100024000020FEF7FBBA704710B590F8382078
:101E200090F839408B18DA7AA243DA7204D18A7AB0
:101E300090F83A309A438A720021C16110BD70B5A2
:101E400010F8385F84784678086809E04319DA7A30
:101E5000B243DA7202D1827AA243827251F8040F3D
:101E60000028F3D170BD000010B550210D4800F0DE
:101E7000A3F800200B4B0446411C03EB00108AB270
:101E800003EB02120470426007A2C26088B2042809
:101E9000F2D303EB001004A104704460C160034856
:101EA000036010BDE41700203F0000006000002028
:101EB000D0E9001200232AB1116001B14A608068A4
:101EC00083627047C26800295160F8D04B60F6E722
:101ED00010B54FF4F071114800F06EF800200F4B70
:101EE0000446411C0A4600EB400089B203EBC000E7
:101EF00001EB410103EBC1010470416008A14161A4
:101F000090B21328EDD300EB400003EBC00004A116
:101F10000470446041610348036110BD74090020EE
:101F20003F0000002400002006480021016381706A
:101F3000C1700172C171C160C16181614161417053
:101F4000817270472400002010B54FF4F2611648EA
:101F500000F032F84FF48071144800F02DF8124B65
:101F60000020411C00EB40040A4604EBC000C9B24B
:101F700001EB410403EBC00004EBC10103EBC10121
:101F800041610B490165D0B21528EAD300EB40014D
:101F900001EBC00003EBC000054A0021026541616E
:101FA00004484362C16210BD54100020540F002049
:101FB000201F000824000020002203E0491E00F832
:101FC000012B89B20029F9D17047000010B56021BA
:101FD0000D48FFF7F1FF0C4B0020411C0A4689B267
:101FE00000EB400001EB410103EBC10143F830106D
:101FF00090B20328F1D300EB4000002143F83010E9
:102000000248036010BD0000341800206400002066
:1020100070B5FEF765F90E4C0546A07898B9E078E2
:1020200088B900F019F80B48627950F82210A162C3
:102030002079824207D0C86B401CC863E068401C0E
:10204000E060FEF768F92846BDE87040FEF74CB93D
:1020500024000020540F00200649054A01F13403F2
:102060008879105C1B5CD25C02EBC0004871704741
:102070007A2A0008240000202DE9F05F9846DDE967
:102080000ABA91460E460546FEF72AF9344F7C6A95
:10209000002C61D061691C347962FEF725F944F89F
:1020A0001C6CA576002626766676666144F810BC20
:1020B00044E906A90C9824F80C0C24F80A8CE808CA
:1020C000E6772077012305F0070103FA00F2E176B5
:1020D000A27703FA01F2627726606660E660A66086
:1020E0002662A66266621FA0E662C4E90C60002058
:1020F0001C3C04EB8001401C4E6510F0FF00F8D042
:102100002046FFF7FFFAFEF7EBF8174941F82540A4
:10211000FEF7EAF82046FFF745FBFEF7E1F8014637
:10212000F86AC4E9050600B18461FC6294F83A00DB
:10213000BA791043B8710A4A14F8380F3432647807
:10214000135C23431354387A401C38720846FEF758
:10215000CBF80020BDE8F09FFEF7C6F84220F9E773
:10216000240000203F000000540F0020054CFEF723
:10217000B7F8E169491CE161FEF7B6F8FFF7E4FB47
:10218000F5E7000024000020044810B50068FFF7C0
:102190004DFCBDE81040FF20FFF706BB44000020C7
:1021A000184C02E0C820FFF7B1FD60780028F9D094
:1021B000642160690025B0FBF1F0606118B92570F9
:1021C000FF20FFF741FDFEF78BF861696422514360
:1021D000E161FEF789F8FEF783F8E169C4E90615C5
:1021E000FEF782F8D4E90510B0FBF1F0C0F164000D
:1021F0002070FFF71DFC00F007F86420FFF786FD54
:10220000E9E70000240000207CB50C4D002469465D
:102210002046FFF70FFC58B955F8241041B10129A9
:1022200006D0D1E9020200EB820088640198C864FC
:10223000641CE4B23F2CEAD97CBD0000540F00209E
:10224000D30707D0920705D50022002902D004C089
:10225000491EFAE770470000144810B5026886B0BE
:10226000002142F002020260006800F002000590C6
:102270004FF48050CDE9000101200290032003902B
:1022800069460B48FEF7C6F8FEF728FFFEF7CEFFBB
:102290004020FEF79BFFFFF70BF80446FEF7E6FF32
:1022A000FF2000F027F806B0204610BD303802406D
:1022B0000004024010B5FEF7B9FF4120FEF786FF8B
:1022C000FEF7F6FF0020FEF74DFF0446FEF7CEFFB7
:1022D000204610BD70B50C460546FFF7EBFF012206
:1022E000AA402CB10243D0B2BDE8704000F002B861
:1022F0009043F9E710B50446FEF798FF4020FEF73B
:1023000065FFFEF7D5FF2046FEF760FFFEF7D0FF22
:10231000FEF7ACFFBDE810400A2000F07BBA704722
:1023200070B51E4C92B00025266846F08056266097
:10233000246804F080541194194C266846F44046F1
:10234000266024680DF1240C04F440441194012407
:1023500000940194022406948CE80D006605CDE9F2
:1023600007616846FEF790FB00B1FEE7FEF7C4F98F
:1023700000B1FEE70CA90F2081E831004FF4A05016
:102380000F904FF48050109005210CA8FEF7F8F93B
:10239000002800D0FEE712B070BD000040380240B7
:1023A0000070004010B5FEF733F9064800780128A8
:1023B00007D1FFF707F9FFF7DDFCBDE81040FFF795
:1023C0000DB910BD2B0000201048016841F47001C8
:1023D00001600F48016841F0010101600C4A0021D1
:1023E0000832116002680B4B1A400260031D0A4A52
:1023F0001A60026822F48022026005480C300160F5
:1024000002495806803908607047000088ED00E0F6
:1024100000380240FFFFF6FE1030002410B590F89F
:102420003910222903D0322901D0022010BD816841
:10243000B1F5805F11D00169002901681FD049689A
:1024400001F07F03816A4A1C82620B70C18D491EB4
:102450000904090CC18518D02FE00269816A002A9D
:102460000268526805D0D2B20A80816A491C816232
:10247000ECE7C2F308020A80816A891CF7E74A6820
:10248000816A4B1C83620A70E0E70168CA6822F027
:102490002002CA6090F83910322910D00168CA6849
:1024A00022F48072CA6001684A6922F001024A611E
:1024B000012180F83910FEF7EEFD002010BD122139
:1024C000F7E700002DE9F041044600680169E26881
:1024D00021F440510A4302612068C16849F20C624C
:1024E00091432369A268E5691A4363692B431A4340
:1024F0000A43C2602068416921F44072A169114316
:102500004161E06964263225B0F5004F484A4949E7
:1025100020681DD0884201D0904269D1FEF764FA4C
:1025200000EBC00101EB00106168B0468900B0FB10
:10253000F1F1B1FBF8F6FEF757FA00EBC00101EB41
:10254000001061688900B0FBF1F7FEF74DFA68E012
:10255000884201D0904219D1FEF746FA00EBC00143
:1025600001EB00106168B0464900B0FBF1F1B1FB2E
:10257000F8F6FEF739FA00EBC00101EB00106168D4
:102580004900B0FBF1F7FEF72FFA18E0FEF716FA54
:1025900000EBC00101EB00106168B0464900B0FBE0
:1025A000F1F1B1FBF8F6FEF709FA00EBC00101EB1F
:1025B000001061684900B0FBF1F7FEF7FFF900EB8E
:1025C000C00101EB001061684900B0FBF1F1B1FB03
:1025D000F8F06FF01801484307EB800005EB00119D
:1025E000B1FBF8F0216866F31F108860BDE8F08148
:1025F000FEF7E4F900EBC00101EB00106168B046A2
:102600008900B0FBF1F1B1FBF8F6FEF7D7F900EB6A
:10261000C00101EB001061688900B0FBF1F7FEF723
:10262000CDF900EBC00101EB001061688900CCE737
:10263000001401400010014090F83910122903D015
:10264000322901D0022070478168B1F5805F016AAC
:102650000BD04A1C0262026809785160C18C491E85
:102660000904090CC1840ED017E009880268C1F37F
:102670000801516001690029016A02D0491C016208
:10268000ECE7891CFBE70168CA6822F08002CA6097
:102690000068C16841F04001C160002070472DE929
:1026A000F0471D4690460F460446FDF7ABFF064631
:1026B0005FEA08004FF000094FF0010808D030E051
:1026C000681C05D095B1FDF79DFF801BA8420DD871
:1026D0002068006837EA0000F2D127E0681C20D0AB
:1026E00025B1FDF78FFF801BA8421AD92068C16869
:1026F00021F08001C1602068C16821F02001C16023
:102700002068C16821F48071C1602068416921F0AE
:102710000101416184F8398084F838900320BDE8D4
:10272000F0872068006837EA0000D7D00020F6E77D
:1027300038B5FEF747FF194800680068C0438006B7
:1027400022D44FF47A73012269461448FEF73EFC06
:10275000134A1088010417D441049DF800104FF06B
:10276000000304D50A290ED140F4004014E00D29DD
:1027700010D0C0F30D04094D401CC83D80B229554E
:102780001080C72800D913800448FEF72CFBFEF701
:1027900025FF38BD40F480401080F5E73409002063
:1027A00020000020FEE770474FF46B74FF20FFF716
:1027B0009DF83F2802D1FF20FEF7F6FF00210846D2
:1027C000FFF788FD3C2000F025F801210020FFF7ED
:1027D00081FD204600F01EF8E8E7000010B5044631
:1027E0000420FEF7DFFA0A484FF47A7114FB01F176
:1027F0000122446002804FF0E020026942F00202B0
:1028000002614161016941F00101016110BD0000F7
:102810001800002070B504460C48007878B10C48C8
:10282000007860B90B4D2888844203D3B4FBF0F0E4
:10283000FFF76CFA2888B4FBF0F100FB11444FF469
:102840007A706043BDE8704000F006B82B000020AD
:1028500026000020180000202DE9F0414FF0E0276D
:1028600000247E690C49496800FB01F5FEF7E4FE8F
:10287000B969B8698842FCD002D2A1EB000102E03C
:10288000A6EB000211440C440146AC42F1D3BDE872
:10289000F041FEF7E7BE000018000020184C0025AC
:1028A000072686B005274FF0800804F5FE79002042
:1028B000FEF768FD012806D0032808D004280AD0B6
:1028C00002280CD017E00720FFF7BEF913E007201D
:1028D000FFF766F80FE00520FFF708F80BE0CDE9F9
:1028E0000074CDF80880CDE9035605234A4600213F
:1028F0000448FEF709FF0A20FFF78CFFD7E7000026
:102900006C040020A92700080B4C4FF4FA75D4F88A
:10291000840260B10021C4F88412D4F8800240B16E
:102920000021C4F880122846FFF774FFEFE7012169
:10293000F1E70121F5E700000080404200B585B0D5
:10294000FDF76EFE0823022219214FF4B470FFF741
:10295000E7FCB420FFF742FF4FF4E13000F06EF8DF
:10296000FEF77CFDFEF7CEFCFFF776FCFEF7AEFD32
:102970000A480DF1040C0723002280218CE80F0087
:102980000A2003460090064A00210648FEF7BCFED6
:10299000FEF786FE05B0002000BD00006C000020A0
:1029A00068020020A9290008F0B585B0FEF790FE66
:1029B000FDF796FC07240025802607460296184856
:1029C000CDE90354CDE9004000F5FE7223462946C7
:1029D0001448FEF799FE1448CDE901060520009041
:1029E000CDE903540346114A00211148FEF78CFE3D
:1029F0000E48104A001DCDE9010603200090CDE9E4
:102A00000354034600210C48FEF77EFE3846FDF7CE
:102A10006BFC05B00A20BDE8F040FFF715B90000D7
:102A20006C020020092900086C04002068060020C0
:102A3000A9270008680800209D2800080749064AC1
:102A4000C1E9002000208860C860086188610C200E
:102A500048610846FEF741BA0010014034090020E1
:102A60004FF04070E1EE100A7047000000000102D4
:102A70000304010203040607080900000100020024
:102A80000100030001000200010004000100020037
:102A90000100030001000200010005000100020026
:102AA0000100030001000200010004000100020017
:102AB0000100030001000200010006000100020005
:102AC00001000300010002000100040001000200F7
:102AD00001000300010002000100050001000200E6
:102AE00001000300010002000100040001000200D7
:102AF00001000300010002000100070001000200C4
:102B000001000300010002000100040001000200B6
:102B100001000300010002000100050001000200A5
:102B20000100030001000200010004000100020096
:102B30000100030001000200010006000100020084
:102B40000100030001000200010004000100020076
:102B50000100030001000200010005000100020065
:102B60000100030001000200010004000100020056
:102B70000100030001000200010000009C2B00087E
:102B8000000000206C000000E8010008082C00088C
:102B90006C0000208C200000040200080024F400D7
:102BA00000000000000000000102030406070809FD
:102BB0000000000000000000000000000000010014
:102BC0000000000000000000000000000000000005
:102BD00000000000000000000000000000000000F5
:102BE00000000000000000000000000000000000E5
:102BF00000000000000000000000000000000000D5
:082C00000000000000000000CC
:04000005080001AD41
:00000001FF
