:020000040800F2
:10000000F81E00204D0200080F110008BD10000866
:100010000D1100081104000865220008000000000E
:10002000000000000000000000000000DB1D0008D0
:1000300013040008000000002B030008611E0008E4
:10004000870200088702000887020008870200086C
:10005000870200088702000887020008870200085C
:10006000870200088702000887020008870200084C
:10007000870200088702000887020008870200083C
:10008000870200088702000887020008870200082C
:10009000870200088702000887020008870200081C
:1000A000870200088702000887020008870200080C
:1000B00087020008870200088702000887020008FC
:1000C00087020008870200088702000887020008EC
:1000D00087020008F1210008870200088702000853
:1000E00087020008870200088702000887020008CC
:1000F00087020008870200088702000887020008BC
:1001000087020008870200088702000887020008AB
:10011000870200088702000887020008870200089B
:10012000870200088702000887020008870200088B
:10013000870200088702000887020008870200087B
:10014000870200088702000887020008870200086B
:10015000870200088702000887020008870200085B
:10016000870200088702000887020008870200084B
:1001700087020008870200088702000800000000CC
:10018000870200088702000887020008870200082B
:10019000870200088702000887020008870200081B
:1001A00087020008870200088702000800F002F8B2
:1001B00000F03CF80AA090E8000C82448344AAF1C5
:1001C0000107DA4501D100F031F8AFF2090EBAE8C3
:1001D0000F0013F0010F18BFFB1A43F0010318477B
:1001E000AC230000CC230000103A24BF78C878C1AB
:1001F000FAD8520724BF30C830C144BF04680C602D
:10020000704700000023002400250026103A28BF74
:1002100078C1FBD8520728BF30C148BF0B60704778
:100220001FB502F025F91FBD10B510BD00F0B5F8DF
:100230001146FFF7F5FF02F09FF800F0D3F803B482
:10024000FFF7F2FF03BC02F00EF8000011488047F0
:10025000DFF84400016841F470010160BFF34F8F83
:10026000DFF83800016821F040410160BFF36F8F73
:100270000B480047FEE7FEE7FEE7FEE7FEE7FEE786
:10028000FEE7FEE7FEE7FEE706480749074A084B98
:1002900070470000851E000888ED00E034EF00E0A4
:1002A000AD010008F8180020F81E0020F81A002000
:1002B000F81A0020EFF3098141B1F1EE101A40F86D
:1002C000041D20ED200A29490A6810607047B0EC2F
:1002D000200A02C8E1EE101A25490A68106070472A
:1002E000EFF3108072B6704780F310887047214892
:1002F0004FF6FF710170002080F309881E480168E5
:1003000081F308881D48012101701D484FF080517C
:10031000016062B6FEE71A484FF0805101607047F5
:1003200017484FF080510160704772B6EFF30980B3
:1003300028B1203880E8F00F0C490968086000B542
:10034000104880475DF804EB0F4810490A780270A6
:10035000064807490A680260106890E8F00F2030EC
:1003600080F309884EF0F40E62B670474400002016
:100370004C00002022ED00E0680000202B0000204F
:1003800004ED00E065180008280000202900002086
:1003900070477047704770477047754600F02CF8FB
:1003A000AE4605006946534620F00700854618B062
:1003B00020B5FFF769FFBDE820404FF000064FF081
:1003C00000074FF000084FF0000B21F00701AC468A
:1003D000ACE8C009ACE8C009ACE8C009ACE8C009A9
:1003E0008D46704710B50446AFF300802046BDE847
:1003F0001040FFF724BF0000004870479418002009
:100400007047704770477047704770477047704734
:10041000FEE770472DE9F84FDFF890B100224FF06A
:1004200001084FF0030A4FF00F090BF1040E00BF53
:100430000B6808FA02F42340A3426ED14D68022DE6
:1004400001D0122D0ED1D50800EB850CDCF8205020
:100450005607F70E09FA07F6B5430E69BE402E435C
:10046000CCF82060066855000F790AFA05FC07F001
:10047000030726EA0C06AF40374307604E68012E9B
:1004800005D0022E03D0112E01D0122E0ED1876876
:10049000CE6827EA0C07AE403E4386604668A64316
:1004A0000C79C4F30014944034434460C4688E68EB
:1004B00024EA0C04AE402643C6604C68E4006FD5C5
:1004C0003B4C256845F480452560246822F00305EF
:1004D00004F480440094374C2E19D6F80848950748
:1004E0002F0F09FA07F5AC43334DA84201D100257F
:1004F0002EE0324DA84201D1012529E0304DA8421D
:1005000001D1022524E02F4DA84201D103251FE08F
:100510002D4DA84202D104251AE041E02B4DA842FE
:1005200001D1052514E02A4DA84201D106250FE08E
:10053000284DA84201D107250AE0274DA84201D144
:10054000082505E0254DA84201D1092500E00A252E
:10055000BD402543C6F80858DBF800405D464E68AC
:100560009C43F60300D51C432C60DEF80040754622
:100570004E689C43B60300D51C432C600B4D0835D8
:100580002C684E689C43F60200D51C432C60074D36
:100590000C352C684E689C43B60200D51C432C6079
:1005A000521C102AFFF444AFBDE8F88F003C014014
:1005B0004438024000300140000002400004024084
:1005C00000080240000C02400010024000140240EB
:1005D00000180240001C024000200240002402409B
:1005E0000AB1816170470904FBE700000148006817
:1005F000704700001400002002480068401C0149B8
:10060000086070471400002010B50D48006840F4E1
:1006100000700B4908600846006840F4806008607C
:100620000846006840F480700860052000F04CF82F
:100630000F2000F007F800F017F8002010BD0000B0
:10064000003C024070B5044600F09CF94FF47A710A
:10065000B0FBF1F5284600F0BFFB00222146501EFA
:1006600000F012F8002070BD08B50020009000BF17
:1006700008BD00F01F02012191404009800000F1F7
:10068000E020C0F800117047F0B40E4B1B680C4618
:10069000C3F30223C3F10705042D00D90425191D56
:1006A000072901D2002300E0DB1E012606FA05F12E
:1006B000491E214099409E40761E16403143F0BCB1
:1006C00000F026BD0CED00E0064900F007020868C6
:1006D0004FF6FF03184040EA0220034A1043086027
:1006E000704700000CED00E00000FA052DE9F8432A
:1006F0001E48016841F0805101600068012600F049
:1007000080500090300490FAA0F0194FB0FA80F0B9
:1007100047F82060FFF76AFF05464FF47A78154CDA
:1007200005E000BFFFF762FF401B404515D8606839
:10073000C003F7D54FF4003090FAA0F0B0FA80F083
:1007400047F82060FFF752FF0546464608E000BF25
:10075000FFF74CFF401BB04202D90320BDE8F883ED
:1007600060688003F4D50020F8E7000040380240BC
:1007700000000E42007000402DE9F05FDFF8FCA1A0
:1007800004460F46DAF80000DFF8F48100F00F01AC
:100790007B4807F0FF0941F2883508F10808B942A3
:1007A00062D28AF80090DAF8001001F00F01B94225
:1007B0007ED12178890707D5D8F80020A36822F0D8
:1007C000F0021A43C8F800202178C9072ED06168CA
:1007D00001291AD002291BD0032919D000688007EB
:1007E000002865DAD8F80000464620F003000843E8
:1007F000C8F80000FFF7FAFE07466068012810D02D
:1008000002281AD003281ED029E000688003E7E7F9
:1008100000688001E4E700BFFFF7E8FEC01BA842C4
:1008200059D83068C0F381000128F5D189E000BFB4
:10083000FFF7DCFEC01BA8424DD83068C0F3810032
:100840000228F5D17DE03068FFF7D0FEC01BA8423A
:10085000F9D940E0FFF7CAFEC01BA8423BD8306878
:1008600010F00C0FF6D16CE02178890707D5D8F885
:100870000020A36822F0F0021A43C8F80020217873
:10088000C9074CD06168012928D0022929D0032941
:1008900027D000688007002849DAD8F8002022F025
:1008A00003020A43C8F80020FFF7A0FE064600E056
:1008B0003DE0606801281DD0022829D0032838D0E7
:1008C000AB464546286810F00C0F28D0FFF78EFE87
:1008D000811B5945F6D90320BDE8F09F00688003CD
:1008E000D9E700688001D6E7FFF780FE811B5945F4
:1008F00002D9F0E7AB4645462868C0F381000128DD
:10090000F2D10CE0FFF772FE811B594502D9E2E7F4
:10091000AB4645462868C0F381000228F2D18AF828
:100920000090DAF8000000F00F00B84209D0012072
:10093000D2E744462068FFF759FE801BA842F9D948
:10094000C9E72078400707D5D8F80010E26821F4FD
:10095000E0511143C8F800102078000708D5D8F8F6
:100960000010226921F4604141EAC201C8F8001078
:100970000F20FFF767FE0020AEE70000003C0240BA
:100980000038024010B500F043F808490968F02229
:1009900092FAA2F201F0F001B2FA82F2D140044AD6
:1009A000515CC8400349086010BD0000083802408F
:1009B0007A2400080000002010B5FFF7E3FF074984
:1009C00009684FF4E05292FAA2F201F4E051B2FA4F
:1009D00082F2D140024A515CC84010BD0838024042
:1009E0007A24000810B5FFF7CDFF074909684FF4D6
:1009F000604292FAA2F201F46041B2FA82F2D1406E
:100A0000024A515CC84010BD083802407A240008F0
:100A100030B51948006810F00C01184812D0184C75
:100A200004290ED008290DD11349091F0A6802F0C4
:100A30003F030A68550247F6C07204D5B4FBF3F0D1
:100A400003E0204630BDB0FBF3F00B6809681340AB
:100A500092FAA2F2B2FA82F2D34058434FF44032F3
:100A600092FAA2F201F44031B2FA82F2D140491C6A
:100A70004900B0FBF1F030BD083802400024F4001A
:100A800040787D012DE9F84F04460078DFF81C839B
:100A9000C74DC0074FF000064BD0D8F800104046B5
:100AA000C1F38101012908D00068C0F38100022848
:100AB0000AD1281D0068400206D52868800338D571
:100AC0006068002871D034E0DFF8E4A20AF1020A7D
:100AD0008AF80060FFF78AFD814641F2883705E019
:100AE000FFF784FDA0EB0900B8427DD82868800399
:100AF000F6D420798AF80000606868B1FFF776FDC7
:100B0000814605E0FFF772FDA0EB0900B842ECD882
:100B100028688003F6D50CE0FFF768FD814605E004
:100B2000FFF764FDA0EB0900B842DED82868800317
:100B3000F6D420789F4F80074FF0010B45D5D8F8A9
:100B40000010404611F00C0F4FF0F80A09D0006871
:100B5000C0F3810002280BD19448001F00684002B6
:100B600006D42868800714D5E06801281DD110E05C
:100B7000E068D8B1C7F800B0FFF738FD814605E05E
:100B8000FFF734FDA0EB09006428AED82868800781
:100B9000F6D528689AFAAAF22169B2FA82F220F010
:100BA000F8009140084328600FE0FCE03E60FFF74A
:100BB0001DFD814606E000BFFFF718FDA0EB090010
:100BC000642811D828688007F6D42078000729D532
:100BD000DFF8D8A1784861690AF16C0A99B1C0F8C8
:100BE00000B0FFF703FD00E086E0814606E000BFAD
:100BF000FFF7FCFCA0EB090064287DD8DAF80000C0
:100C00008007F5D50EE00660FFF7F0FC814605E0B1
:100C1000FFF7ECFCA0EB090064286DD8DAF80000BF
:100C20008007F5D4207840075AD5604838300168ED
:100C300041F0805101600068DFF880A100F0805031
:100C40000090DAF8001041F48071CAF80010FFF744
:100C5000CDFC814606E000BFFFF7C8FCA0EB090011
:100C6000642849D8DAF80000C005F5D5DFF83C91D2
:100C700009F1680989F80060FFF7B8FC41F2883A89
:100C8000009005E0FFF7B2FC0099411A514533D8B6
:100C9000D9F800008007F5D4207A89F80000A06810
:100CA00078B1FFF7A3FC009006E000BFFFF79EFCC1
:100CB0000099411A51456ED8D9F800008007F5D542
:100CC0000EE0FFF793FC009006E000BFFFF78EFCFC
:100CD0000099411A51455ED8D9F800008007F5D433
:100CE000A069E8B3D8F80010C1F3810102295AD0F5
:100CF00002283E6605D000E04DE0FFF777FC044691
:100D00004CE0FFF773FC064605E000BFFFF76EFC02
:100D1000801B64283FD828688001F7D4D4E90701F4
:100D2000084347F6C07292FAA2F2616AB2FA82F2FE
:100D30009140A26A4FF0FF3303EB52024FF440336D
:100D400093FAA3F3B3FA83F39A40114308434FF0A5
:100D5000706292FAA2F2E16AB2FA82F2914000E085
:100D60001FE008431149091F0860C7F860B0FFF78A
:100D70003DFC044605E000BFFFF738FC001B64287B
:100D800009D828688001F7D50BE000BFFFF72EFCDB
:100D9000001B642802D90320BDE8F88F2868800171
:100DA000F4D40020F8E70120F6E7000008380240FC
:100DB0000038024000004742800E47420070004069
:100DC0004FF0E0210428086903D020F004000861F6
:100DD000704740F00400FAE710B5401EB0F1807F84
:100DE00001D3012010BD4FF0E02460610F21601796
:100DF00000F08EF90020A06107202061002010BDC6
:100E00007047000038B5016804460868CA6810F0E9
:100E1000010F02F4807207D032B108684868009070
:100E2000E06B40F00100E06308684A69C0F34000ED
:100E300002F0010238B132B1086848680090E06BF6
:100E400040F00400E06308684A69C0F3800002F0E3
:100E5000010238B132B1086848680090E06B40F098
:100E60000200E0630868C0F3C002486900F00100B6
:100E70003AB130B1086848680090E06B40F0080073
:100E8000E0630868C968C0F3401001F0200118B1A0
:100E900011B1204601F020F821680868C968C0F344
:100EA000C01001F0800118B111B1204601F024F901
:100EB00021680868CA68C0F3801002F0400201256A
:100EC00070B16AB1CA68204622F04002CA6094F844
:100ED000391032290DD080F8395000BF00F0EDF8FC
:100EE000E06B002804D084F839502046FFF788FFD3
:100EF00038BD222180F83910F0E770B5040004D025
:100F000094F83900002510B106E0012070BD84F886
:100F10003850204600F020F8022084F8390020687C
:100F2000C16821F40051C160204601F029F8206811
:100F3000016921F4904101612068416921F02A0191
:100F400041612068C16841F40051C160E56301203E
:100F500084F83900002070BD30B50446006820498F
:100F600087B0884239D11F48016841F00101016012
:100F7000006800F0010005901A481430016841F043
:100F8000100101600068012100F0100005904FF48D
:100F9000007000900220CDE9010103900720124D5E
:100FA000049069462846FFF735FA281500906946EF
:100FB0002846FFF72FFA2068C16821F04001C16080
:100FC0002068C16841F02001C1602520FFF751FB76
:100FD000032211462520FFF757FB07B030BD000064
:100FE0000010014030380240000002402DE9F04777
:100FF000044690F8390099460D46012801D0122880
:1010000058D12DB322B394F83800012852D00126CC
:1010100084F838600027E76394F8390012281AD062
:101020005FF0220084F83900A285E2854FF48058F1
:10103000E08D4B46401EE085A0684FF00002404521
:101040004FF02001204616D101F089F8B0B904E034
:101050000120BDE8F0873220E4E7206900282068FD
:10106000406803D0C1B225F8011B12E0C0F30801AB
:1010700025F8021B0DE001F072F808B10320E8E743
:10108000206900282068406801D000F07F0005F842
:10109000010BE08D0028CBD194F83900322805D01F
:1010A00084F8396084F838700020D2E7122084F880
:1010B0003900F7E70220CCE770477047FEE70000F1
:1010C000104810B5016886B041F002010160006867
:1010D000012100F0020005900320CDE90210CDE9C6
:1010E0000001094C69462046FFF794F90122114698
:1010F0002046FFF775FA012202212046FFF770FA19
:1011000006B010BD3038024000040240FEE77047D0
:101110000907090E002806DA00F00F0000F1E020B0
:1011200080F8141D704700F1E02080F8001470472B
:1011300070B586B000F064F800F0BCFC22480024D2
:101140002146847100F134025454491CC9B2082963
:10115000FAD3047144718462046200F0BBFC00F0B5
:101160007DFC00F047FC00F0F5FC80261748CDE937
:1011700001064FF6FF70009003253F23144A00211B
:101180001448CDE9034500F0F1F805AA12A13F206B
:1011900000F0E0F91448CDE901064FF6FE700B4A65
:1011A00000903E23121F00211048CDE9034500F0B6
:1011B000DDF805AA0EA13E2000F0CCF906B0BDE88E
:1011C000704000F02FB8000024000020540B0020D5
:1011D000500D0020F11C000875432F4F532D494935
:1011E0002049646C6500000054090020251D00089A
:1011F00075432F4F532D49492053746174000000EB
:1012000005498020002204C1401EFCD10348044946
:1012100020F0070008607047941600209418002002
:1012200068000020704700000449C879012804D1F3
:101230008878FF2801D2401C887070472400002065
:1012400070B5144CE079012822D1FFF749F8054622
:10125000A07820B1401E10F0FF00A07013D1E078FC
:1012600088B900F0BBFC0C48617950F82100A062FD
:101270002279914207D0C16B491CC163E068401CD0
:10128000E060FFF74DF82846BDE87040FFF72CB846
:1012900070BD000024000020540D002010B5094C42
:1012A000E07901280CD1FFF71BF8A17821B9E1788A
:1012B000FF2901D2491CE170BDE81040FFF714B8C6
:1012C00010BD00002400002010B50D4CE07901286D
:1012D00014D1FFF705F8A17831B9E17821B1491EA1
:1012E00011F0FF01E17003D0BDE81040FEF7FCBF34
:1012F000FEF7FAFFBDE8104000F04CBC10BD000046
:101300002400002010B5094CE07900280CD100F031
:1013100065FC60790649207151F82000A0622062C6
:10132000BDE81040FEF7E3BF10BD00002400002020
:10133000540D002010B5022000F0AEFAFEF7D0FFE9
:10134000084C0021E161FEF7CFFF642000F0A4FA11
:10135000FEF7C6FFE169616101216170BDE81040DF
:10136000FEF7C2BF24000020FFF74AB82DE9FF4F67
:1013700083B01C46DDE91386DDE9119792468B4662
:10138000FEF7AEFF1D49097829B1FEF7ADFF3C20FD
:1013900007B0BDE8F08F1A4D55F8241019B1FEF7CB
:1013A000A3FF2820F4E7012145F82410FEF79CFF55
:1013B00032463946484600F005FD33465246594606
:1013C000039800F02FF90097CDE9018601464A46BF
:1013D0002046109B00F012FC060008D0FEF780FFAC
:1013E000002145F82410FEF77FFF3046D0E705487E
:1013F00000780128F9D100F0CDFBF6E726000020A7
:10140000540D00202B000020FEF7FBBF2DE9F04714
:1014100006464348007810B14020BDE8F0873F2ED3
:1014200005D0FEF75DFF0746FF2E02D005E03E2007
:10143000F3E73C48006890F83660DFF8EC9059F824
:1014400026405CB1012C0ED094F83820374994F82E
:101450003930885C984388540AD00FE03846FEF74C
:1014600043FF4320D9E73846FEF73EFF3D20D4E74F
:101470002F4894F83A20017891430170E16911B145
:10148000204600F090FA216A11B1204600F09DFA42
:10149000A06A08B100F0D2FA4FF00008C4F830801A
:1014A000244D84F8348084F835802878FF2801D2D0
:1014B000401C28703846FEF717FF00F073FAFEF75D
:1014C0000FFF0746287808B1401E2870204600F01C
:1014D0003DF819490878401E087049F82680A1692E
:1014E000404691B160694861D4E9050181611348C2
:1014F00001686161046012A020653846FEF7F4FEC1
:1015000010480078012806D007E0616988610E491B
:1015100060690860EBE700F03DFB00207DE700001C
:101520002600002044000020540D00205800002018
:101530002A000020270000202C0000204800002066
:101540003F0000002B00002050000020FEF75ABF93
:10155000FEF759BF70B5054611480E46144600788F
:1015600010B11220107070BDFEF7BAFE0146FF2DBB
:1015700003D10C48006890F836500B4850F825000D
:10158000432540B1012806D006650846FEF7ACFEAB
:101590000020207070BD0846FEF7A6FE257070BDC5
:1015A0002600002044000020540D0020FEF72CBF30
:1015B000FEF72BBF2DE9F0410446002008600D46E0
:1015C0004860FEF78DFE0146FF2C03D113480068EA
:1015D00090F83640124850F8240058B1012809D03C
:1015E000027CD2070CD0D0E9027600240846FEF730
:1015F0007BFE0BE00846FEF777FE4320BDE8F08156
:101600000846FEF771FE4520F8E7641C01CF00286C
:10161000FBD0301BC5E900400020EFE7440000206C
:10162000540D002010B5121D22F007024FF08074F7
:1016300042E902044C4CA2F10C004FF0123240E996
:1016400001244FF0033240F8082C4FF0023240F8EA
:101650000C2C521040E905124FF0113140F8181CC3
:10166000110140F81C1C4FF0093140F8201CD1003A
:1016700040F8241C4FF0073140F8281C4FF0063189
:1016800040F82C1C4FF0053140F8301D910040F817
:10169000041D590767D55106021F1160A0F108010A
:1016A000324A0A60091F324A0A60091F314A0A6039
:1016B000091F314A0A60091F304A0A60091F304A6F
:1016C0000A60091F2F4A0A60091F2F4A0A60091F72
:1016D0002E4A0A60091F2E4A0A60091F2D4A0A6015
:1016E000091F2D4A0A60091F2C4A0A60091F2C4A4B
:1016F0000A60091F2B4A0A60091F4FF083420A60E3
:10170000091F294A0A60091F284A0A60091F284A36
:101710000A60091F274A0A60091F274A0A60091F31
:10172000264A0A60091F264A0A60091F4FF08242B2
:101730000A60091F234A0A60091F234A0A60091F19
:10174000224A0A60091F4FF081420A60091F204A9D
:101750000A60091F12020A60091F4FF07E520A60D8
:10176000002140F8841D10BD0D1D00080000F84147
:101770000000F0410000E8410000E0410000D841D5
:101780000000D0410000C8410000C0410000B84145
:101790000000B0410000A8410000A04100009841B5
:1017A000000090410000884100007041000060414D
:1017B0000000504100004041000030410000204145
:1017C000000010410000E0400000C0400000A040C8
:1017D0000000404070B50446FEF782FD03461D48F8
:1017E000FF2C006805D090F83600A04204D10125F6
:1017F00003E090F83640FAE70025174850F8240037
:1018000058B101280ED090F83820144C90F8396067
:10181000A15CB143A1540AD00FE01846FEF764FD65
:10182000482070BD1846FEF75FFD432070BD0C498F
:1018300090F83A400A78A2430A7010F8341F41F039
:10184000080101701846FEF74FFD0DB100F0A2F936
:10185000002070BD44000020540D002058000020DE
:101860002A0000200A4810B50068017C490702D50B
:101870000068FEF71FFD07480068017C490702D594
:101880000068FEF724FDBDE81040FEF7BFBD000074
:10189000440000204C00002070B504461348007836
:1018A000002821D11248007800281DD1002C1BD01F
:1018B000FEF716FD03460F480F4D016891F83800FA
:1018C00091F839602A5CB2432A5405D10B4891F84B
:1018D0003A500278AA43027018460C63FEF704FDE2
:1018E000BDE8704000F056B970BD00002600002031
:1018F0002700002044000020580000202A0000207B
:101900002DE9F04100F04CF8FEF7EAFC234D296B7D
:10191000491C2963FEF7E8FCE87901283BD1687A85
:101920000126002720B1012835D0022802D06F728D
:10193000EC6A2CE06E72FBE7FEF7D2FC216B19B368
:10194000491E216320D194F8341011F0370F06D0CE
:1019500001F0C80184F8341084F8356001E084F89F
:10196000357094F8341009070ED494F83A10AA7917
:101970001143A971094994F83820343194F839C0D9
:101980008B5C43EA0C038B546469FEF7ADFC94F85E
:1019900036003F28D0D1BDE8F081000024000020AF
:1019A000FEF735BD704710B590F8382090F83940F3
:1019B0008B18DA7AA243DA7204D18A7A90F83A3034
:1019C0009A438A720021C16110BD70B510F8383F8A
:1019D00084784578086809E0C618F27AAA43F2725A
:1019E00002D1827AA243827251F8040F0028F3D107
:1019F00070BD000010B550210D4800F0A1F8002086
:101A00000B4A0346411C02EB00108CB202EB04149B
:101A10000370446007A4C46088B20428F2D302EBC8
:101A2000001004A103704360C1600348026010BD50
:101A3000E41500203F00000060000020D0E9001203
:101A400000232AB1116001B14A6080688362704747
:101A5000C26800295160F8D04B60F6E710B54FF42A
:101A6000F071114800F06CF800200F490346421C49
:101A700000EB400094B201EBC00004EB440401EB26
:101A8000C4040370446009A4446190B21328EED3E7
:101A900000EB400001EBC00004A203704360426110
:101AA0000348016110BD0000740700203F000000E2
:101AB000240000200648002101638170C17001727A
:101AC000C171C160C16181614161417081727047C2
:101AD0002400002010B54FF4F261154800F030F8F2
:101AE0004FF48071134800F02BF8114A0020411C7C
:101AF00000EB400404EBC000CBB203EB430402EB69
:101B0000C00004EBC30302EBC30343610A4B03654C
:101B1000C8B21528EBD300EB400101EBC00002EB8B
:101B2000C00000210365416104484262C16210BDEA
:101B3000540E0020540D0020AC1A00082400002090
:101B4000002203E0491E00F8012B89B20029F9D1D7
:101B50007047000010B560210C48FFF7F1FF0B4AF9
:101B60000020411C8BB200EB400003EB430302EB6F
:101B7000C30342F8303088B20328F2D300EB4000B0
:101B8000002142F830100248026010BD34160020D7
:101B90006400002070B5FEF7A3FB0E4C0546A0784C
:101BA00098B9E07888B900F019F80B49607951F8D4
:101BB0002010A1622279904207D0C86B401CC863F4
:101BC000E068401CE060FEF7A6FB2846BDE87040D8
:101BD000FEF78ABB24000020540D00200649054A68
:101BE00001F134038879105C1B5CD25C02EBC0000D
:101BF000487170478A240008240000202DE9F05F16
:101C00009846DDE90ABA91460D460746FEF768FB9D
:101C1000344E746A002C60D061691C347162FEF726
:101C200063FB44F81C5CA776002525766576656124
:101C300044F810BC44E906A90C9824F80C0C24F8CC
:101C40000A8CE577FA08227707F00701012000FAED
:101C500002F2E176A2778840607725606560E560F2
:101C6000A5602562A56265621FA0E562C4E90C500B
:101C700000201C3C04EB8001401C4D6510F0FF006F
:101C8000F8D02046FFF770FBFEF72AFB174941F812
:101C90002740FEF729FB2046FFF7B6FBFEF720FBA7
:101CA0000146F06AC4E9050500B18461F46294F864
:101CB0003A00B2791043B0710A4814F8382F343022
:101CC0006478835C23438354307A401C3072084626
:101CD000FEF70AFB0020BDE8F09FFEF705FB42205F
:101CE000F9E70000240000203F000000540D002010
:101CF000054C00BFFEF7F4FAE169491CE161FEF70B
:101D0000F3FAFFF725FCF5E724000020044810B59E
:101D10000068FFF74BFCBDE81040FF20FFF776BBE3
:101D200044000020184C02E0C820FFF7B5FD6078A1
:101D30000028F9D0642160690025B0FBF1F06061F2
:101D400018B92570FF20FFF745FDFEF7C9FA616954
:101D500064225143E161FEF7C7FA00BFFEF7C0FA03
:101D6000E169C4E90615FEF7BFFAD4E90510B0FB36
:101D7000F1F0C0F164002070FFF71AFC00F006F8E3
:101D80006420FFF789FDE9E7240000207CB50C4DB5
:101D9000002469462046FFF70DFC58B955F8240089
:101DA00040B1012806D0D0E9021201EB8201816422
:101DB0000199C164641CE4B23F2CEAD97CBD0000E7
:101DC000540D0020D30707D0920705D50022002923
:101DD00002D004C0491EFAE77047704770B51E4C28
:101DE00092B00025266846F080562660246804F0EC
:101DF00080541194194C266846F4404626602468A5
:101E00000DF1240C04F44044119401240094019435
:101E1000022406948CE80D006605CDE9076168464A
:101E2000FEF730FE00B1FEE7FEF760FC00B1FEE712
:101E30000CA90F2081E831004FF4A0500F904FF40F
:101E40008050109005210CA8FEF796FC002800D0C9
:101E5000FEE712B070BD0000403802400070004044
:101E600010B5FEF7C9FB06480078012807D1FFF737
:101E7000DBF9FFF745FDBDE81040FFF7E1B910BD04
:101E80002B0000201048016841F4700101600F48E8
:101E9000016841F0010101600C4A00210832116023
:101EA00002680B4B1A400260031D0A4A1A6002685E
:101EB00022F48022026005480C3001600249580675
:101EC000803908607047000088ED00E0003802406B
:101ED000FFFFF6FE1030002410B590F839102229CB
:101EE00003D0322901D0022010BD8168B1F5805F96
:101EF00011D00169002901681FD0496801F07F03F2
:101F0000816A4A1C82620B70C18D491E0904090C4A
:101F1000C18518D030E00269816A002A02685268DF
:101F200005D0D2B20A80816A491C8162ECE7C2F313
:101F300008020A80816A891CF7E74A68816A4B1C9B
:101F400083620A70E0E70168CA6822F02002CA6072
:101F500090F83910322911D00168CA6822F48072D1
:101F6000CA6001684A6922F001024A615FF001011A
:101F700080F83910FFF7A0F8002010BD1221F7E714
:101F80002DE9F04101680446086920F44052E068F8
:101F9000104308612268D06849F20C6188432369C4
:101FA000A168E569194363692B4319430143D16073
:101FB0002168486920F44072A06910434861E269D1
:101FC00064263225B2F5004F49494A4822681DD09F
:101FD000824201D08A426AD1FEF704FD00EBC001C3
:101FE00001EB00106168B0468900B0FBF1F1B1FB74
:101FF000F8F6FEF7F7FC00EBC00101EB001061689A
:102000008900B0FBF1F7FEF7EDFC69E0824201D0F8
:102010008A4219D1FEF7E6FC00EBC00101EB00108B
:102020006168B0464900B0FBF1F1B1FBF8F6FEF78C
:10203000D9FC00EBC00101EB001061684900B0FB66
:10204000F1F7FEF7CFFC18E0FEF7B6FC00EBC0019D
:1020500001EB00106168B0464900B0FBF1F1B1FB43
:10206000F8F6FEF7A9FC00EBC00101EB0010616877
:102070004900B0FBF1F7FEF79FFC00EBC00101EB5C
:10208000001061685FEA4101B0FBF1F1B1FBF8F0CB
:102090006FF01801484307EB800005EB0011B1FB1E
:1020A000F8F0216866F31F108860BDE8F081FEF744
:1020B00083FC00EBC00101EB00106168B0468900B1
:1020C000B0FBF1F1B1FBF8F6FEF776FC00EBC001D6
:1020D00001EB001061688900B0FBF1F7FEF76CFCC2
:1020E00000EBC00101EB001061688900CCE7000043
:1020F000001401400010014090F83910122903D05B
:10210000322901D0022070478168B1F5805F016AF1
:102110000BD04A1C0262026809785160C18C491ECA
:102120000904090CC1840ED017E009880268C1F3C4
:102130000801516001690029016A02D0491C01624D
:10214000ECE7891CFBE70168CA6822F08002CA60DC
:102150000068C16841F04001C160002070472DE96E
:10216000F0471D4690460E460446FEF73FFA0746E6
:102170005FEA08004FF000094FF0010808D030E096
:10218000681C05D095B1FEF731FAC01BA8420DD8E6
:102190002068006836EA0000F2D127E0681C20D0F1
:1021A00025B1FEF723FAC01BA8421AD92068C168DE
:1021B00021F08001C1602068C16821F02001C16068
:1021C0002068C16821F48071C1602068416921F0F4
:1021D0000101416184F8398084F838900320BDE81A
:1021E000F0872068006836EA0000D7D00020F6E7C4
:1021F00038B5FFF719F8194800680068C043800631
:1022000022D44FF47A73012269461448FEF7EEFE99
:10221000134801880A0417D44B049DF800304FF08E
:10222000000204D50A2B0ED141F4004114E00D2B1D
:1022300010D0C1F30D04094D491CC83D89B22B557E
:102240000180C72900D902800448FEF7DBFDFEF7B4
:10225000F7FF38BD41F480410180F5E734070020E5
:1022600020000020FEE7704710B504460420FEF76A
:10227000A7FD0A484FF47A7114FB01F10122446072
:1022800002804FF0E020026942F0020202614161E7
:10229000016941F00101016110BD0000180000203A
:1022A00070B504460C48007878B10C48007860B9E5
:1022B0000B4D2888844203D3B4FBF0F0FFF7ECFA0F
:1022C0002888B4FBF0F100FB11444FF47A706043AE
:1022D000BDE8704000F006B82B000020260000206A
:1022E000180000202DE9F0414FF0E0260024776926
:1022F0000C49496800FB01F5FEF7D0FFB069B169F0
:102300008142FCD002D2A0EB010002E0A7EB010267
:10231000104404440846AC42F1D3BDE8F041FEF756
:10232000D3BF0000180000200025084C01264FF400
:10233000667700BFC4F884525020FFF7B1FFC4F89D
:1023400084623846FFF7ACFFF4E7000000804042AB
:102350000026084C4FF496755FF00107C4F88062C0
:102360002846FFF79DFFC4F880722846FFF798FFC4
:10237000F4E700000080404200B585B0FEF744F964
:102380000823022219214FF4B470FFF727FDB4206F
:10239000FFF76AFF4FF4E13000F058F8FEF790FEC7
:1023A000FEF7C6FE0A480DF1040C07230022802127
:1023B0008CE80F000A2003460090064A00210648D8
:1023C000FEF7D4FFFEF79EFF05B0002000BD000021
:1023D0006C00002068020020DD230008F0B585B005
:1023E000FEF7A8FFFDF77CFF07240025802607469F
:1023F00002961148CDE90354CDE9004000F5FE7284
:10240000234629460D48FEF7B1FF0D48CDE90106E8
:1024100006200090CDE9035403460A4A00210A48E9
:10242000FEF7A4FF3846FDF75FFF05B00A20BDE8C0
:10243000F040FFF7CFB900006C020020292300080C
:102440006C04002068060020512300080749064A52
:10245000C1E9002000208860C860086188610C2004
:1024600048610846FEF749BD0010014034070020CE
:102470004FF04070E1EE100A7047000000000102CA
:10248000030401020304060708090000010002001A
:10249000010003000100020001000400010002002D
:1024A000010003000100020001000500010002001C
:1024B000010003000100020001000400010002000D
:1024C00001000300010002000100060001000200FB
:1024D00001000300010002000100040001000200ED
:1024E00001000300010002000100050001000200DC
:1024F00001000300010002000100040001000200CD
:1025000001000300010002000100070001000200B9
:1025100001000300010002000100040001000200AC
:10252000010003000100020001000500010002009B
:10253000010003000100020001000400010002008C
:10254000010003000100020001000600010002007A
:10255000010003000100020001000400010002006C
:10256000010003000100020001000500010002005B
:10257000010003000100020001000400010002004C
:10258000010003000100020001000000AC2500086A
:10259000000000206C000000E80100081826000878
:1025A0006C0000208C1E0000040200080024F400CF
:1025B00000000000000000000102030406070809F3
:1025C000000000000000000000000000000000000B
:1025D00000000000000000000000000000000000FB
:1025E00000000000000000000000000000000000EB
:1025F00000000000000000000000000000000000DB
:1026000000000000000000000000000000000000CA
:082610000000000000000000C2
:04000005080001AD41
:00000001FF
